:100000000C9434000C9446000C9446000C9446006A
:100010000C9446000C9446000C9446000C94460048
:100020000C9446000C9446000C9446000C94460038
:100030000C9446000C9446000C9446000C94460028
:100040000C9446000C9446000C9446000C94460018
:100050000C9446000C9477000C9446000C944600D7
:100060000C9446000C94460011241FBECFEFD8E03C
:10007000DEBFCDBF21E0A0E0B1E001C01D92AD30F8
:10008000B207E1F70E949A020C94C1020C9400009E
:1000900017B818B808958FE880937A0083B7826004
:1000A00083BF089583B7817F826083BF83B78160F8
:1000B00083BF889583B78E7F83BF0895CF93C82F62
:1000C000883058F4806480937C008FE99FE001972A
:1000D000F1F700C000000E945200EC2FF0E0EE0F9C
:1000E000FF1FEF5FFE4F80819181CF9108951F9296
:1000F0000F920FB60F9211242F933F934F938F932C
:100100009F93EF93FF93E0917C0040917800809162
:100110007900EF70F0E021E030E0811102C020E0D2
:1001200030E0EE0FFF1FEF5FFE4F31832083208111
:100130003181322F22273183208390E0982F882726
:10014000840F911D91838083FF91EF919F918F91F7
:100150004F913F912F910F900FBE0F901F901895C8
:10016000982F991F9927991F86FD02C020E001C092
:1001700022E0922B85FD02C020E001C024E0922BFA
:1001800084FD02C020E001C028E0922B83FD02C064
:1001900020E001C020E1922B82FD02C020E001C0DE
:1001A00020E2922B81FD02C020E001C020E4922BCE
:1001B00080FD02C080E001C080E8892B0895CF93C4
:1001C000C82F807F0E94B000880F880F80930001A5
:1001D0008BB1837C8BB99BB180910001892B8BB94A
:1001E0005F985E9A8FE19EE40197F1F700C00000EE
:1001F0005E988C2F8295807F0E94B0009BB1937C8B
:100200009BB99BB1880F880F982B9BB95F985E9A1A
:100210008FE19EE40197F1F700C000005E98CF9156
:1002200008958AB18C6F8AB98BB184708BB90895A7
:10023000CF93C82F807F0E94B0009BB1937C9BB965
:100240009BB1880F880F982B9BB95F9A5E9A8FE1BC
:100250009EE40197F1F700C000005E988C2F829514
:10026000807F0E94B0009BB1937C9BB99BB1880FAB
:10027000880F982B9BB95F9A5E9A8FE19EE4019755
:10028000F1F700C000005E98CF91089580E80E94C9
:10029000DF000895813019F0823031F008958FE742
:1002A000860F0E94DF0008958FEB860F0E94DF000B
:1002B00008950F931F93CF93DF938A01E901882359
:1002C00011F0611103C00E94460102C00E944A0160
:1002D000C530D10509F0BFC09801329522952F7025
:1002E00023273F702327A7E4B3E00E94B20296952C
:1002F00087959695879596958795805D0E941801BC
:100300009801369527953695279536952795A5EC2E
:10031000B0E20E94B202AC01529542954F7045275F
:100320005F7045279A01ADECBCEC0E94B202969535
:10033000879596958795969587959C01220F331FF3
:10034000880F991F880F991F880F991F820F931F7D
:100350009A01281B390BC901805D0E94180103C056
:10036000C330D10551F598013695279536952795D7
:10037000ABE7B4E10E94B202AC01569547959A01F1
:10038000ADECBCEC0E94B202969587959695879548
:10039000969587959C01220F331F880F991F880F10
:1003A000991F880F991F820F931F9A01281B390BE1
:1003B000C901805D0E94180104C0C230D10509F056
:1003C0004FC09801ADECBCEC0E94B202AC01569556
:1003D000479556954795569547959A010E94B202C2
:1003E0009695879596958795969587959C01220F6A
:1003F000331F880F991F880F991F880F991F820F2D
:10040000931F9A01281B390BC901805D0E941801B6
:100410009801ADECBCEC0E94B2029695879596953A
:100420008795969587959C01220F331F880F991FFA
:10043000880F991F880F991F820F931F9801281BFF
:10044000390BC901805D0E94180126976CF085E484
:100450000E94180109C0C430D10509F081CF50CFE6
:10046000C130D10591F7D4CFDF91CF911F910F917A
:1004700008958FE99FE00197F1F700C000005F98B1
:1004800080E38BB95E9AEFE1FEE43197F1F700C0AB
:1004900000005E98EFE9FFE03197F1F700C000003F
:1004A0005F988BB95E9AEFE1FEE43197F1F700C0F7
:1004B00000005E98EFE9FFE03197F1F700C000001F
:1004C0005F988BB95E9A8FE19EE40197F1F700C0C7
:1004D00000005E98EFE9FFE03197F1F700C00000FF
:1004E0005F9880E18BB95E9A8FE99FE00197F1F701
:1004F00000C000005E98EFE9FFE03197F1F700C01F
:10050000000088E20E94DF0081E00E94DF008CE0B2
:100510000E94DF0080E80E94DF0008950E94110120
:100520000E9448000895F8940E9439020E944B00EE
:10053000789408950E948E020E94930280E00E94A7
:100540005E0024E030E0AC0161E081E00E945901EE
:100550002FEF89E698E1215080409040E1F700C0FC
:100560000000ECCFA29FB001B39FC001A39F700D0C
:10057000811D1124911DB29F700D811D1124911DAB
:060580000895F894FFCF7E
:00000001FF
