S012000053657269616C436F6D6D2E7372656326
S11300000C9434000C9446000C9446000C94460066
S11300100C9446000C9446000C9446000C94460044
S11300200C9446000C9446000C9446000C94460034
S11300300C9446000C9446000C9446000C94460024
S11300400C9446000C9446000C946D000C944600ED
S11300500C9446000C9446000C9446000C94460004
S11300600C9446000C94460011241FBECFEFD8E038
S1130070DEBFCDBF21E0A0E0B1E001C01D92A13000
S1130080B207E1F70E944D000C9483000C94000029
S1130090F8940E945D00789408950E944800E6EC6C
S11300A0F0E08BE480832FEF3FE493EC2150304069
S11300B09040E1F700C00000F5CFE1ECF0E01082E1
S11300C01092C00086E08093C20087E68093C4004B
S11300D01092C50088E9808308951F920F920FB68D
S11300E00F9211248F93EF93FF93E6ECF0E080815D
S11300F0809300018083FF91EF918F910F900FBE49
S10D01000F901F901895F894FFCF9C
S9030000FC
