:100000000C9434000C9446000C9446000C9446006A
:100010000C9446000C9446000C9446000C94460048
:100020000C9446000C9446000C9446000C94460038
:100030000C9446000C9446000C9446000C94460028
:100040000C9446000C9446000C9446000C94460018
:100050000C9446000C9446000C9446000C94460008
:100060000C9446000C94460011241FBECFEFD8E03C
:10007000DEBFCDBF21E0A0E0B1E001C01D92A13004
:10008000B207E1F70E9461020C9488020C94000010
:1000900017B818B8089587E880937A000895EAE7BA
:1000A000F0E0808180648083808184FFFDCFEAE777
:1000B000F0E08081806180832091780080917900D8
:1000C00090E0982F8827820F911D0895883060F462
:1000D000806480937C008FE19EE40197F1F700C07B
:1000E00000000E944F00089586E190E00895982F47
:1000F000991F9927991F86FD02C020E001C022E0C8
:10010000922B85FD02C020E001C024E0922B84FDEB
:1001100002C020E001C028E0922B83FD02C020E055
:1001200001C020E1922B82FD02C020E001C020E24C
:10013000922B81FD02C020E001C020E4922B80FDC3
:1001400002C080E001C080E8892B0895CF93C82FBA
:10015000807F0E947700880F880F809300018BB109
:10016000837C8BB99BB180910001892B8BB95F98FF
:100170005E9A8FE19EE40197F1F700C000005E985F
:100180008C2F8295807F0E9477009BB1937C9BB9D6
:100190009BB1880F880F982B9BB95F985E9A8FE16F
:1001A0009EE40197F1F700C000005E98CF9108959A
:1001B0008AB18C6F8AB98BB184708BB90895CF9353
:1001C000C82F807F0E9477009BB1937C9BB99BB125
:1001D000880F880F982B9BB95F9A5E9A8FE19EE4F7
:1001E0000197F1F700C000005E988C2F8295807F08
:1001F0000E9477009BB1937C9BB99BB1880F880FBD
:10020000982B9BB95F9A5E9A8FE19EE40197F1F774
:1002100000C000005E98CF91089580E80E94A6007B
:100220000895813019F0823031F008958FE7860FFC
:100230000E94A60008958FEB860F0E94A6000895E5
:100240000F931F93CF93DF938A01E901882311F065
:10025000611103C00E940D0102C00E941101C5304E
:10026000D10509F0BFC09801329522952F70232740
:100270003F702327A7E4B3E00E9479029695879503
:100280009695879596958795805D0E94DF009801E9
:10029000369527953695279536952795A5ECB0E2A6
:1002A0000E947902AC01529542954F7045275F70CC
:1002B00045279A01ADECBCEC0E9479029695879592
:1002C00096958795969587959C01220F331F880FE9
:1002D000991F880F991F880F991F820F931F9A01EA
:1002E000281B390BC901805D0E94DF0003C0C330A9
:1002F000D10551F598013695279536952795ABE7A9
:10030000B4E10E947902AC01569547959A01ADEC93
:10031000BCEC0E947902969587959695879596955F
:1003200087959C01220F331F880F991F880F991FF3
:10033000880F991F820F931F9A01281B390BC9013F
:10034000805D0E94DF0004C0C230D10509F04FC0BB
:100350009801ADECBCEC0E947902AC015695479532
:1003600056954795569547959A010E94790296951C
:10037000879596958795969587959C01220F331FB3
:10038000880F991F880F991F880F991F820F931F3D
:100390009A01281B390BC901805D0E94DF0098017A
:1003A000ADECBCEC0E947902969587959695879561
:1003B000969587959C01220F331F880F991F880FF0
:1003C000991F880F991F820F931F9801281B390BC3
:1003D000C901805D0E94DF0026976CF085E40E94D1
:1003E000DF0009C0C430D10509F081CF50CFC13042
:1003F000D10591F7D4CFDF91CF911F910F9108953F
:100400008FE99FE00197F1F700C000005F9880E35B
:100410008BB95E9AEFE1FEE43197F1F700C000007E
:100420005E98EFE9FFE03197F1F700C000005F98B8
:100430008BB95E9AEFE1FEE43197F1F700C000005E
:100440005E98EFE9FFE03197F1F700C000005F9898
:100450008BB95E9A8FE19EE40197F1F700C000002E
:100460005E98EFE9FFE03197F1F700C000005F9878
:1004700080E18BB95E9A8FE99FE00197F1F700C0A8
:1004800000005E98EFE9FFE03197F1F700C000004F
:1004900088E20E94A60081E00E94A6008CE00E94F3
:1004A000A60080E80E94A60008950E94D8000E943D
:1004B00048000895F8940E9400020E944B0078942E
:1004C00008950E9455020E945A0280E00E94660030
:1004D00024E030E0AC0161E081E00E9420012FEFD8
:1004E00089E698E1215080409040E1F700C000008B
:1004F000ECCFA29FB001B39FC001A39F700D811DDF
:100500001124911DB29F700D811D1124911D08951C
:04051000F894FFCF8D
:00000001FF
