S00B00005350492E737265632D
S11300000C9434000C9451000C9451000C94510045
S11300100C9451000C9451000C9451000C94510018
S11300200C9451000C9451000C9451000C94510008
S11300300C9451000C9451000C9451000C945100F8
S11300400C9451000C94B1020C9451000C94510086
S11300500C9451000C9451000C9451000C945100D8
S11300600C9451000C94510011241FBECFEFD8E022
S1130070DEBFCDBF11E0A0E0B1E0E6EAF5E002C0EA
S113008005900D92AC31B107D9F721E0ACE1B1E0B4
S113009001C01D92A032B207E1F70E944B020C94FA
S11300A0D1020C940000982F991F9927991F86FD5F
S11300B002C020E001C022E0922B85FD02C020E0B6
S11300C001C024E0922B84FD02C020E001C028E09E
S11300D0922B83FD02C020E001C020E1922B82FD1F
S11300E002C020E001C020E2922B81FD02C020E08A
S11300F001C020E4922B80FD02C080E001C080E8B2
S1130100892B0895CF93C82F807F0E945300880FB6
S1130110880F80931C018BB1837C8BB99BB1809138
S11301201C01892B8BB95F985E9A8FE19EE401973D
S1130130F1F700C000005E988C2F8295807F0E94AA
S113014053009BB1937C9BB99BB1880F880F982B6C
S11301509BB95F985E9A8FE19EE40197F1F700C026
S113016000005E98CF9108958AB18C6F8AB98BB1E3
S113017084708BB90895CF93C82F807F0E94530059
S11301809BB1937C9BB99BB1880F880F982B9BB92B
S11301905F9A5E9A8FE19EE40197F1F700C0000038
S11301A05E988C2F8295807F0E9453009BB1937C34
S11301B09BB99BB1880F880F982B9BB95F9A5E9A65
S11301C08FE19EE40197F1F700C000005E98CF91A3
S11301D0089580E80E9482000895813019F08230E9
S11301E031F008958FE7860F0E94820008958FEB07
S11301F0860F0E9482000895CF93DF93EA010E9444
S1130200ED008881882331F021960E94BB008991FA
S11302108111FBCFDF91CF9108950F931F93CF935B
S1130220DF938A01E901882311F0611103C00E9460
S1130230E90002C00E94ED00C530D10509F0BFC03D
S11302409801329522952F7023273F702327A7E426
S1130250B3E00E94C20296958795969587959695E8
S11302608795805D0E94BB00980136952795369549
S1130270279536952795A5ECB0E20E94C202AC0101
S1130280529542954F7045275F7045279A01ADEC12
S1130290BCEC0E94C2029695879596958795969593
S11302A087959C01220F331F880F991F880F991F70
S11302B0880F991F820F931F9A01281B390BC901BC
S11302C0805D0E94BB0003C0C330D10551F5980185
S11302D03695279536952795ABE7B4E10E94C2027F
S11302E0AC01569547959A01ADECBCEC0E94C20254
S11302F09695879596958795969587959C01220F57
S1130300331F880F991F880F991F880F991F820F19
S1130310931F9A01281B390BC901805D0E94BB0001
S113032004C0C230D10509F04FC09801ADECBCEC5B
S11303300E94C202AC01569547955695479556952D
S113034047959A010E94C20296958795969587953E
S1130350969587959C01220F331F880F991F880F4C
S1130360991F880F991F820F931F9A01281B390B1D
S1130370C901805D0E94BB009801ADECBCEC0E94F9
S1130380C2029695879596958795969587959C0133
S1130390220F331F880F991F880F991F880F991FE9
S11303A0820F931F9801281B390BC901805D0E949D
S11303B0BB0026976CF085E40E94BB0009C0C430E2
S11303C0D10509F081CF50CFC130D10591F7D4CFF9
S11303D0DF91CF911F910F9108958FE99FE00197CD
S11303E0F1F700C000005F9880E38BB95E9AEFE1FB
S11303F0FEE43197F1F700C000005E98EFE9FFE0FA
S11304003197F1F700C000005F988BB95E9AEFE175
S1130410FEE43197F1F700C000005E98EFE9FFE0D9
S11304203197F1F700C000005F988BB95E9A8FE1B5
S11304309EE40197F1F700C000005E98EFE9FFE049
S11304403197F1F700C000005F9880E18BB95E9AA4
S11304508FE99FE00197F1F700C000005E98EFE993
S1130460FFE03197F1F700C0000088E20E948200AB
S113047081E00E9482008CE00E94820080E80E9459
S11304808200089581E00E9482000895F8940E94F9
S1130490ED01789408950E94B4000E94460240E061
S11304A051E061E081E00E94FC000E9498022FEF7D
S11304B083ED90E3215080409040E1F700C00000BC
S11304C00E944202C0E0D0E062E070E08C2F0E9403
S11304D0A60290931E0180931D014BE051E061E060
S11304E081E00E94FC0022E030E0AE0166E081E0A1
S11304F00E940D0141E151E061E082E00E94FC00B4
S113050040911D0150911E0122E030E06AE082E03A
S11305100E940D012FEF83ED90E321508040904025
S1130520E1F700C000002196CA30D10569F6CACFB0
S113053084B18C6284B924988CB580618CBD8CB5EF
S113054083608CBD8CB580648CBD08952A988EBD63
S11305500DB407FEFDCF2A9A8EB580931F0190E05B
S113056008951F920F920FB60F9211248F938EB598
S113057080931F018C5E8EBD8F910F900FBE0F90E4
S11305801F901895A29FB001B39FC001A39F700D47
S1130590811D1124911DB29F700D811D1124911D87
S10905A00895F894FFCF5A
S11305A6535049204D61737465720053656E74200F
S10F05B6005265636569766564200000EE
S9030000FC
