S00D0000496E7075742E7372656307
S11300000C9434000C943E000C943E000C943E007E
S11300100C943E000C943E000C943E000C943E0064
S11300200C943E000C943E000C943E000C943E0054
S11300300C943E000C943E000C943E000C943E0044
S11300400C943E000C943E000C943E000C943E0034
S11300500C943E000C943E000C943E000C943E0024
S11300600C943E000C943E0011241FBECFEFD8E048
S1130070DEBFCDBF0E9440000C9451000C940000E0
S11300802C9A259A1C9B02C02D9A01C02D982FEF03
S113009080E792E0215080409040E1F700C00000EA
S10900A0F1CFF894FFCF3C
S9030000FC
