:100000000C9460000C947D000C947D000C947D0099
:100010000C947D000C947D000C947D000C947D006C
:100020000C947D000C947D000C947D000C947D005C
:100030000C947D000C947D000C947D000C947D004C
:100040000C947D000C947D000C94C0000C94EE0088
:100050000C947D000C947D000C947D000C947D002C
:100060000C947D000C947D00427566666572206F6D
:10007000766572666C6F77206572726F723A2000D7
:1000800055415254204F76657272756E20457272DA
:100090006F723A200055415254204672616D6520BE
:1000A0004572726F723A2000537472696E672073E2
:1000B000746F72656420696E20464C4153480A0093
:1000C00011241FBECFEFD8E0DEBFCDBF11E0A0E00E
:1000D000B1E0E8E7F3E002C005900D92A831B10766
:1000E000D9F721E0A8E1B1E001C01D92AD35B2071A
:1000F000E1F70E947F000C94BA010C940000CF93AA
:10010000DF93CDB7DEB727970FB6F894DEBF0FBEEB
:10011000CDBF87E690E00E941801789480E091E0DE
:100120000E94640188EA90E00E9473014AE0BE01E7
:100130006F5F7F4F86E890E00E948501CE010196B7
:100140000E9464018DE00E944F010E9431018C01E8
:1001500090FDFBCF94FF04C085E990E00E947301FD
:1001600013FF04C080E890E00E94730111FF04C0F7
:1001700088E690E00E947301802F0E944F01E5CF36
:100180001F920F920FB60F9211242F938F939F936C
:10019000EF93FF938091C0002091C6008C71E09195
:1001A0001A01EF5FEF7190911901E91739F0E093AF
:1001B0001A01F0E0E35EFE4F208301C082E09091DF
:1001C0001801892B80931801FF91EF919F918F91D6
:1001D0002F910F900FBE0F901F9018951F920F92A6
:1001E0000FB60F9211248F939F93EF93FF939091EB
:1001F0001C0180911B01981769F0E0911B01EF5FD2
:10020000EF71E0931B01F0E0E35CFE4F808180938F
:10021000C60005C0E1ECF0E080818F7D8083FF9116
:10022000EF919F918F910F900FBE0F901F90189597
:1002300010921C0110921B0110921A0110921901C8
:1002400099231CF422E02093C00090789093C5007D
:100250008093C40088E98093C10086E08093C20047
:10026000089590911A01809119019817A9F0909121
:1002700019019F5F9F71E92FF0E0E35EFE4F20813F
:1002800080911801909319011092180190E0982F15
:100290008827820F911D089580E091E008952091B4
:1002A0001C012F5F2F7190911B012917E1F3E22FA1
:1002B000F0E0E35CFE4F808320931C01E1ECF0E072
:1002C0008081806280830895CF93DF93EC018881E1
:1002D000882331F021960E944F0189918111FBCF33
:1002E000DF91CF910895CF93DF93EC012196FC012C
:1002F0008491882339F00E944F01FE018491219658
:100300008111F9CFDF91CF910895BB274A3031F4A5
:10031000992322F4BDE2909581959F4F0C94910111
:10032000BB27FB015527AA27880F991FAA1FA417CF
:1003300010F0A41B83955051B9F7A05DAA3308F0C3
:10034000A95DA193009779F7B111B1931192CB01F7
:100350000C94AA01DC01FC01672F71917723E1F76E
:10036000329704C07C916D9370836291AE17BF0782
:08037000C8F30895F894FFCFD3
:10037800537472696E672073746F72656420696E56
:08038800205352414D0A000010
:00000001FF
