:100000000C9434000C9453000C9462000C94510036
:100010000C9451000C9451000C9451000C9451001C
:100020000C9451000C9451000C9451000C9451000C
:100030000C9451000C9451000C9451000C945100FC
:100040000C9451000C9451000C9451000C945100EC
:100050000C9451000C9451000C9451000C945100DC
:100060000C9451000C94510011241FBECFEFD8E026
:10007000DEBFCDBF11E0A0E0B1E0EAEAF1E002C0EE
:1000800005900D92A230B107D9F721E0A2E0B1E0CE
:1000900001C01D92A630B207E1F70E9495000C94B2
:1000A000D3000C9400001F920F920FB60F921124F0
:1000B0008F9382E68093C6008F910F900FBE0F90B2
:1000C0001F9018951F920F920FB60F9211248F93C5
:1000D0009F9380910001909101010197F9F4109292
:1000E0000101109200014F9B0DC08091040190917D
:1000F0000501019690930501809304018BE28093A2
:10010000C6000CC080910401909105010197909365
:100110000501809304018DE28093C6009F918F9129
:100120000F900FBE0F901F901895F8945798539802
:10013000E99AE89AE9E6F0E080818C60808380812A
:10014000826080830E94C3007894E6ECF0E06EE267
:1001500041E050E0209104013091050180910201BD
:100160009091030128173907A9F360835093010187
:100170004093000180910401909105019093030147
:1001800080930201E7CFE1ECF0E010821092C00012
:1001900086E08093C20087E68093C4001092C50079
:0A01A00088E980830895F894FFCFEA
:0201AA00010052
:00000001FF
