S00B00005350492E737265632D
S11300000C9434000C9451000C9451000C94510045
S11300100C9451000C9451000C9451000C94510018
S11300200C9451000C9451000C9451000C94510008
S11300300C9451000C9451000C9451000C945100F8
S11300400C9451000C9490010C9451000C945100A8
S11300500C9451000C9451000C9451000C945100D8
S11300600C9451000C94510011241FBECFEFD8E022
S1130070DEBFCDBF11E0A0E0B1E0E6E4F3E002C0F2
S113008005900D92AA30B107D9F721E0AAE0B1E0BA
S113009001C01D92AC30B207E1F70E9467010C94D5
S11300A0A1010C940000982F991F9927991F86FD90
S11300B002C020E001C022E0922B85FD02C020E0B6
S11300C001C024E0922B84FD02C020E001C028E09E
S11300D0922B83FD02C020E001C020E1922B82FD1F
S11300E002C020E001C020E2922B81FD02C020E08A
S11300F001C020E4922B80FD02C080E001C080E8B2
S1130100892B0895CF93C82F807F0E945300880FB6
S1130110880F80930A018BB1837C8BB99BB180914A
S11301200A01892B8BB95F985E9A8FE19EE401974F
S1130130F1F700C000005E988C2F8295807F0E94AA
S113014053009BB1937C9BB99BB1880F880F982B6C
S11301509BB95F985E9A8FE19EE40197F1F700C026
S113016000005E98CF9108958AB18C6F8AB98BB1E3
S113017084708BB90895CF93C82F807F0E94530059
S11301809BB1937C9BB99BB1880F880F982B9BB92B
S11301905F9A5E9A8FE19EE40197F1F700C0000038
S11301A05E988C2F8295807F0E9453009BB1937C34
S11301B09BB99BB1880F880F982B9BB95F9A5E9A65
S11301C08FE19EE40197F1F700C000005E98CF91A3
S11301D00895813019F0823031F008958FE7860F49
S11301E00E94820008958FEB860F0E94820008957A
S11301F0CF93DF93EA010E94E9008881882331F0DC
S113020021960E94BB0089918111FBCFDF91CF9190
S113021008958FE99FE00197F1F700C000005F980F
S113022080E38BB95E9AEFE1FEE43197F1F700C009
S113023000005E98EFE9FFE03197F1F700C000009D
S11302405F988BB95E9AEFE1FEE43197F1F700C055
S113025000005E98EFE9FFE03197F1F700C000007D
S11302605F988BB95E9A8FE19EE40197F1F700C025
S113027000005E98EFE9FFE03197F1F700C000005D
S11302805F9880E18BB95E9A8FE99FE00197F1F75F
S113029000C000005E98EFE9FFE03197F1F700C07D
S11302A0000088E20E94820081E00E9482008CE0CB
S11302B00E94820080E80E948200089581E00E94EA
S11302C082000895F8940E940901789408950E9488
S11302D0B4000E94620140E051E061E081E00E94CC
S11302E0F8000E947F012FEF83ED90E321508040BE
S11302F09040E1F700C000000E945E01FFCF84B18E
S1130300837D84B9249A8CB58F7E8CBD8CB5836033
S11303108CBD8CB580648CBD8CB580688CBD089513
S11303201F920F920FB60F9211248F938EB5809364
S11303300B018C5E8EBD8F910F900FBE0F901F909E
S10903401895F894FFCFAC
S10D034653504920536C61766500A2
S9030000FC
