S00F000041726475696E6F2E7372656343
S11300000C9462000C948A000C948A000C948A006C
S11300100C948A000C948A000C948A000C948A0034
S11300200C948A000C948A000C948A000C948A0024
S11300300C948A000C948A000C948A000C948A0014
S11300400C9488020C948A000C948A000C948A0004
S11300500C948A000C948A000C948A000C948A00F4
S11300600C948A000C948A0000000008000201002D
S1130070000304070000000000000000010204085F
S113008010204080010204081020010204081020FE
S1130090040404040404040402020202020203032A
S11300A003030303000000002300260029000000CE
S11300B00000250028002B00000000002400270079
S11300C02A00E00011241FBECFEFD8E0DEBFCDBF71
S11300D011E0A0E0B1E0E0E1F2E102C005900D9290
S11300E0AC32B107D9F721E0ACE2B1E001C01D9216
S11300F0AA35B207E1F710E0C2E6D0E004C02197C8
S1130100FE010E940009C136D107C9F70E94F4001C
S11301100C9406090C94000020E042E060E18CE2BB
S113012091E00E94D60561E088E00E94A20361E0AC
S113013088E00E94DE0361E08AE00E94A20360E09E
S11301408AE00C94DE03CF93DF9369E084E491E0CA
S11301500E94E20440E060E08CE291E00E94BB0572
S113016060E071E08CE291E00E944601C4E4D1E0D9
S11301704C815D816E817F8122E030E08CE291E0F0
S11301800E94860241E060E08CE291E00E94BB059F
S113019066E071E08CE291E00E9446014881598159
S11301A06A817B8122E030E08CE291E00E94860249
S11301B060ED77E080E090E0DF91CF910C94F7025E
S11301C0CF92EF920F9382E0C82E93E0E92E04E0E1
S11301D025E046E067E08CE291E00E947B060F9107
S11301E0EF90CF90089508950E943E030E94F3007B
S11301F00E948C00C0E0D0E00E94A3002097E1F3AD
S11302000E940000F9CF80E090E008950895CF9215
S1130210DF92EF92FF920F931F93CF93DF936C01C2
S11302207A018B01C0E0D0E0CE15DF0581F0D80162
S11302306D918D01D601ED91FC910190F081E02D3D
S1130240C6010995892B11F02196EECF7E01C701D5
S1130250DF91CF911F910F91FF90EF90DF90CF909E
S113026008956115710579F0FB0101900020E9F70B
S11302703197AF01461B570BDC01ED91FC910280D5
S1130280F381E02D099480E090E008950C9431010D
S1130290DC01ED91FC910190F081E02D09948F92A5
S11302A09F92AF92BF92EF92FF920F931F93CF93BF
S11302B0DF93CDB7DEB7A1970FB6F894DEBF0FBEBC
S11302C0CDBF7C01FA01CB0119A2223008F42AE047
S11302D08E010F5D1F4F822E912CA12CB12CBF01DA
S11302E0A50194010E94DE08F901CA010150110917
S11302F06A3010F4605D01C0695CD8016C93232BF3
S1130300242B252B61F7B801C7010E943101A19666
S11303100FB6F894DEBF0FBECDBFDF91CF911F9112
S11303200F91FF90EF90BF90AF909F908F900895A2
S11303302115310541F4DC01ED91FC910190F0812E
S1130340E02D642F09940C944F019A01AB0160E0F5
S113035070E00C9498017F928F929F92AF92BF921B
S1130360CF92DF92EF92FF920F931F93CF93DF937D
S11303708C016A017B01722E9A01AB01C701B6019F
S11303800E94D908882319F063E171E027C046016F
S11303905701E894B7F82FEF3FEF4FE75FE7C50148
S11303A0B4010E94D90881110DC02FEF3FEF4FE730
S11303B05FE7C501B4010E940F0718161CF467E13A
S11303C071E00CC02FEF3FEF4FE75FE4C701B601C8
S11303D00E946708181694F46BE171E0C801DF917C
S11303E0CF911F910F91FF90EF90DF90CF90BF902E
S11303F0AF909F908F907F900C9431012FEF3FEF3F
S11304004FE75FECC701B6010E940F0787FDE4CFF9
S113041020E030E0A901C701B6010E940F0787FF61
S11304200AC06DE2C8010E944801EC01F7FAF09499
S1130430F7F8F09402C0C0E0D0E0B12C60E070E0C6
S113044080E09FE37B1441F020E030E040E251E49F
S11304500E941407B394F6CFA70196010E94A30645
S11304606B017C010E9486074B015C012AE0AB0111
S1130470BC01C8010E944F01C80FD91F7720B9F1F0
S1130480C501B4010E94B5079B01AC01C701B601C7
S11304900E94A2066B017C016EE2C8010E94480121
S11304A0C80FD91F20E030E040E251E4C701B60193
S11304B00E946C084B015C010E9486076B017C0161
S11304C04AE050E0C8010E94A501C80FD91FB60137
S11304D080E090E00E94B5079B01AC01C501B40126
S11304E00E94A2066B017C017A947110DBCFCE01CD
S11304F0DF91CF911F910F91FF90EF90DF90CF90FC
S1130500BF90AF909F908F907F9008950C94AB0113
S11305101F920F920FB60F9211242F933F938F9334
S11305209F93AF93BF938091520190915301A091F7
S11305305401B09155013091510123E0230F2D371F
S113054020F40196A11DB11D05C026E8230F0296D3
S1130550A11DB11D20935101809352019093530129
S1130560A0935401B0935501809156019091570185
S1130570A0915801B09159010196A11DB11D80931C
S1130580560190935701A0935801B0935901BF911C
S1130590AF919F918F913F912F910F900FBE0F902C
S11305A01F9018953FB7F894809156019091570188
S11305B0A0915801B091590126B5A89B05C02F3FC1
S11305C019F00196A11DB11D3FBFBA2FA92F982F75
S11305D08827820F911DA11DB11DBC01CD0142E0F0
S11305E0660F771F881F991F4A95D1F708958F9238
S11305F09F92AF92BF92CF92DF92EF92FF926B01E4
S11306007C010E94D2024B015C01C114D104E104BB
S1130610F10401F10E94A1060E94D202DC01CB0187
S113062088199909AA09BB09883E9340A105B10517
S113063060F321E0C21AD108E108F10888EE880EBF
S113064083E0981EA11CB11CC114D104E104F1047F
S113065019F7DBCFFF90EF90DF90CF90BF90AF9072
S11306609F908F9008958230910538F0880F991FDC
S1130670880F991F05970197F1F70895789484B529
S1130680826084BD84B5816084BD85B5826085BD8A
S113069085B5816085BDEEE6F0E080818160808370
S11306A0E1E8F0E010828081826080838081816053
S11306B08083E0E8F0E0808181608083E1EBF0E01A
S11306C0808184608083E0EBF0E0808181608083BE
S11306D0EAE7F0E0808184608083808182608083A7
S11306E08081816080838081806880831092C100D2
S11306F00895833081F028F4813099F08230A1F09C
S113070008958730A9F08830B9F08430D1F480910D
S113071080008F7D03C0809180008F77809380005C
S1130720089584B58F7702C084B58F7D84BD089504
S11307308091B0008F7703C08091B0008F7D80934B
S1130740B0000895CF93DF9390E0FC01E458FF4F8D
S11307502491FC01E057FF4F8491882361F190E0DC
S1130760880F991FFC01E854FF4FC591D491FC01F7
S1130770E255FF4FA591B491611109C09FB7F89458
S11307808881209582238883EC912E230BC06230CC
S113079061F49FB7F8948881322F3095832388833E
S11307A0EC912E2B2C939FBF06C08FB7F894E88151
S11307B02E2B28838FBFDF91CF9108951F93CF9362
S11307C0DF93282F30E0F901E859FF4F8491F901B4
S11307D0E458FF4FD491F901E057FF4FC491CC2363
S11307E0C1F0162F81110E947903EC2FF0E0EE0F77
S11307F0FF1FE255FF4FA591B4919FB7F8941111D3
S113080004C08C91D095D82302C0EC91DE2BDC93EC
S11308109FBFDF91CF911F910895CF93DF93282F2E
S113082030E0F901E859FF4F8491F901E458FF4F92
S1130830D491F901E057FF4FC491CC2391F0811179
S11308400E947903EC2FF0E0EE0FFF1FEC55FF4FF1
S1130850A591B491EC91ED2381E090E021F480E046
S113086002C080E090E0DF91CF9108954F925F92B3
S11308706F927F929F92AF92BF92CF92DF92EF924C
S1130880FF920F931F93CF93DF938C01C62FFC012C
S11308901086118612861386148661E08C2F0E94BE
S11308A0A20360E08C2F0E94DE0364E170E080E02C
S11308B090E00E94F70261E08C2F0E94DE0388E240
S11308C090E00E94330360E08C2F0E94A20351E168
S11308D0E52E57E2F52E8C2F0E940D04892B39F456
S11308E0F1E0EF1AF108B9F78EEF9FEF5BC041E139
S11308F0E42E47E2F42E8C2F0E940D04019729F474
S113090081E0E81AF108B9F7EFCF28E2E22EF12CE2
S1130910912CD7E0AA24A394B12C91E1C92E97E29B
S1130920D92E8C2F0E940D04892B29F4E1E0CE1AD4
S1130930D108B9F7D9CF0E94D2022B013C0181E141
S1130940C82E87E2D82E8C2F0E940D04019729F41B
S1130950F1E0CF1AD108B9F7C7CF0E94D202DC0167
S1130960CB0184199509A609B7098997A105B10591
S113097060F0F801E90DF11D2085C5010D2E01C0BF
S1130980880F0A94EAF7822B8087D11103C09394CD
S1130990D7E001C0D15081E0E81AF10809F0BDCFD9
S11309A080E090E0DF91CF911F910F91FF90EF9045
S11309B0DF90CF90BF90AF909F907F906F905F90AB
S11309C04F9008950F931F93CF93DF93EC010E94F0
S11309D03604009709F50885602F70E080E090E008
S11309E00E94B507688379838A839B831A85612F64
S11309F070E080E090E00E94B5076C837D838E8375
S1130A009F83100F81E090E02C85121302C080E0D8
S1130A1090E0919581959109DF91CF911F910F916C
S1130A200895CF93DF93EC0160E08E810E94DE0392
S1130A3081E090E00E94330361E08E810E94DE0336
S1130A4081E090E00E94330360E08E810E94DE0327
S1130A5084E690E0DF91CF910C943303CF92DF9240
S1130A60EF92FF920F931F93CF93DF936C017C015E
S1130A7087E0E80EF11CC0E0D0E0062F10E0B801DA
S1130A800C2E02C0759567950A94E2F76170F70120
S1130A9081917F010E94DE032196C430D10579F74C
S1130AA0C601DF91CF911F910F91FF90EF90DF90DE
S1130AB0CF900C941105CF92DF92EF92FF920F9397
S1130AC01F93CF93DF936C017C0187E0E80EF11C48
S1130AD0C0E0D0E0062F10E0B8010C2E02C07595DE
S1130AE067950A94E2F76170F70181917F010E9492
S1130AF0DE032196C830D10579F7C601DF91CF9185
S1130B001F910F91FF90EF90DF90CF900C941105FF
S1130B101F93CF93DF93EC01162F642F8C810E94D7
S1130B20DE038D818F3F19F060E00E94DE038F8524
S1130B30612F84FF06C0CE01DF91CF911F910C94E9
S1130B405B0570E084E0759567958A95E1F7CE01C1
S1130B500E942E05612FCE01DF91CF911F910C943D
S1130B602E0540E00C94880561E00E94B10580EDFB
S1130B7097E00C943303FC01443008F043E083898C
S1130B80481710F04FEF480FDF01A40FB11D549622
S1130B909C91690F6068CF010C94B105FC016089D8
S1130BA0262F2460208B6C600C94B105EF92FF9289
S1130BB00F931F93CF93DF93EC01423018F08F858E
S1130BC088608F874B8B1C8A80E48D8B6E8B70E0E2
S1130BD0605C7F4F6F8B222329F0413019F48F859D
S1130BE084608F8761E08C810E94A2038D818F3F96
S1130BF019F061E00E94A20361E08E810E94A203C9
S1130C007E0187E0E80EF11C00E010E08F8584FD92
S1130C1003C084E090E002C088E090E00817190760
S1130C204CF461E0F70181917F010E94A2030F5F00
S1130C301F4FECCF80E593EC0E94330360E08C817E
S1130C400E94DE0360E08E810E94DE038D818F3F6F
S1130C5019F060E00E94DE036F8564FD1DC063E04F
S1130C60CE010E942E0584E991E10E94330363E0E2
S1130C70CE010E942E0584E991E10E94330363E0D2
S1130C80CE010E942E0586E990E00E94330362E0C3
S1130C90CE010E942E0516C06062CE010E94B105ED
S1130CA084E991E10E9433036F856062CE010E9462
S1130CB0B10586E990E00E9433036F856062CE013E
S1130CC00E94B1056F856062CE010E94B10584E087
S1130CD0888BCE010E94CE05CE010E94B40582E02D
S1130CE0898B66E0CE01DF91CF911F910F91FF9028
S1130CF0EF900C94B105CF92EF920F93FC01138205
S1130D00128283E291E09183808364838FEF8583F1
S1130D10468327830087E186C28613861486158658
S1130D201686178620E041E060E1CF010F91EF9035
S1130D30CF900C94D60541E00E94880581E090E0B4
S1130D40089508955058BB27AA270E94BA060C9408
S1130D502D080E941F0838F00E94260820F039F45C
S1130D609F3F19F426F40C941C080EF4E095E7FB5D
S1130D700C941608E92F0E943E0858F3BA1762072C
S1130D8073078407950720F079F4A6F50C9460089E
S1130D900EF4E0950B2EBA2FA02D0B01B901900192
S1130DA00C01CA01A0011124FF27591B99F0593FD6
S1130DB050F4503E68F11A16F040A22F232F342F1E
S1130DC04427585FF3CF469537952795A795F0406C
S1130DD05395C9F77EF41F16BA0B620B730B840B81
S1130DE0BAF09150A1F0FF0FBB1F661F771F881F39
S1130DF0C2F70EC0BA0F621F731F841F48F4879591
S1130E0077956795B795F7959E3F08F0B0CF939582
S1130E10880F08F09927EE0F9795879508950E94FB
S1130E20F20708F481E008950E9428070C942D0825
S1130E300E94260858F00E941F0840F029F45F3FE2
S1130E4029F00C94160851110C9461080C941C0898
S1130E500E943E0868F39923B1F3552391F3951B3F
S1130E60550BBB27AA2762177307840738F09F5FC7
S1130E705F4F220F331F441FAA1FA9F335D00E2E34
S1130E803AF0E0E832D091505040E695001CCAF7A1
S1130E902BD0FE2F29D0660F771F881FBB1F261764
S1130EA037074807AB07B0E809F0BB0B802DBF013B
S1130EB0FF2793585F4F3AF09E3F510578F00C940A
S1130EC016080C9461085F3FE4F3983ED4F38695CA
S1130ED077956795B795F7959F5FC9F7880F911D2B
S1130EE09695879597F90895E1E0660F771F881F17
S1130EF0BB1F621773078407BA0720F0621B730BCA
S1130F00840BBA0BEE1F88F7E09508950E944608FB
S1130F1088F09F5798F0B92F9927B751B0F0E1F0B6
S1130F20660F771F881F991F1AF0BA95C9F714C066
S1130F30B13091F00E946008B1E008950C9460080B
S1130F40672F782F8827B85F39F0B93FCCF386959F
S1130F5077956795B395D9F73EF4909580957095FC
S1130F6061957F4F8F4F9F4F0895E89409C097FB79
S1130F703EF490958095709561957F4F8F4F9F4F6C
S1130F809923A9F0F92F96E9BB279395F6958795B0
S1130F9077956795B795F111F8CFFAF4BB0F11F473
S1130FA060FF1BC06F5F7F4F8F4F9F4F16C088231A
S1130FB011F096E911C0772321F09EE8872F762F50
S1130FC005C0662371F096E8862F70E060E02AF091
S1130FD09A95660F771F881FDAF7880F969587957D
S1130FE097F90895990F0008550FAA0BE0E8FEEF52
S1130FF016161706E807F907C0F012161306E407D9
S1131000F50798F0621B730B840B950B39F40A26D1
S113101061F0232B242B252B21F408950A2609F4AF
S1131020A140A6958FEF811D811D089597F99F67B3
S113103080E870E060E008959FEF80EC089500245C
S11310400A941616170618060906089500240A9429
S113105012161306140605060895092E0394000CAF
S113106011F4882352F0BB0F40F4BF2B11F460FF3E
S113107004C06F5F7F4F8F4F9F4F089557FD905867
S1131080440F551F59F05F3F71F04795880F97FB48
S1131090991F61F09F3F79F0879508951216130602
S11310A01406551FF2CF4695F1DF08C01616170631
S11310B01806991FF1CF8695710561050894089566
S11310C0E894BB2766277727CB0197F908950E94F8
S11310D0F20708F48FEF08950E947F080C942D08FE
S11310E00E941F0838F00E94260820F0952311F072
S11310F00C9416080C941C0811240C9461080E948A
S11311003E0870F3959FC1F3950F50E0551F629F01
S1131110F001729FBB27F00DB11D639FAA27F00D4C
S1131120B11DAA1F649F6627B00DA11D661F829F73
S11311302227B00DA11D621F739FB00DA11D621F58
S1131140839FA00D611D221F749F3327A00D611D75
S1131150231F849F600D211D822F762F6A2F112457
S11311609F5750409AF0F1F088234AF0EE0FFF1F8A
S1131170BB1F661F771F881F91505040A9F79E3FE1
S1131180510580F00C9416080C9461085F3FE4F359
S1131190983ED4F3869577956795B795F795E79537
S11311A09F5FC1F7FE2B880F911D9695879597F940
S11311B008950E94F207880B990B0895A1E21A2E54
S11311C0AA1BBB1BFD010DC0AA1FBB1FEE1FFF1FE7
S11311D0A217B307E407F50720F0A21BB30BE40B37
S11311E0F50B661F771F881F991F1A9469F760957E
S11311F07095809590959B01AC01BD01CF01089538
S1131200EE0FFF1F0590F491E02D0994F894FFCFA1
S113121054656D703A0048756D69646974793A0073
S11312200D0A006E616E00696E66006F76660000DE
S10F12300000009B0607010301060100FA
S9030000FC
