:100000000C9401350C9429350C9429350C94293520
:100010000C9429350C9429350C9429350C942935E8
:100020000C9429350C9429350C9429350C942935D8
:100030000C9429350C9429350C9429350C942935C8
:100040000C9447360C9429350C9429350C94293599
:100050000C9429350C9429350C9429350C942935A8
:100060000C94603B0C94293539310A0F20DC0202D4
:100070000505050807020302030602030203050340
:1000800005050505050505050202060606050A061D
:100090000606060505060602040605070607060805
:1000A00007060606060807060503030205050204FF
:1000B00005040504030505020205020805050505FA
:1000C00004040305050705050403020406020202F1
:1000D0000202020202020202020202020202020200
:1000E00002020202020202020202020202020002F2
:1000F00005060506020403070305050307060406B3
:1001000003030205050103020305080808050606A6
:10011000060606060A06050506050202030206068D
:10012000070707070705070606060606060604046E
:10013000050404040804040405040202030205057E
:100140000505050505060505050500000000F8F88C
:1001500016163838003838000000000020E038E07B
:10016000381C061C060470C8FC88100C183E120EC1
:10017000784878806018000000001806001E121EE3
:1001800000B0F8C87830000E1E12121E1C0A383853
:100190000000C0F0180E3E60F0C03E0E5038500017
:1001A00000008080E0E0808002020E0E020200006B
:1001B00050300000000404040000101080F8F81E05
:1001C0001E00F0F808F8F00E1E101E0E60F0F80089
:1001D0001E1E101888F8F0181E161210101888F835
:1001E000700818101E0E8060F8F80006041E1E0429
:1001F000C07848C8880818101E0EE0F848D8900E3D
:100200001E101E0E0808E8F818001E1E0000707868
:100210008878700E1E101E0EF0F808F8F0081A12FA
:100220001E0640401010404050308080C0C0C0606A
:1002300006060C0C0C18C0C0C0C0C0C00C0C0C0CC6
:100240000C0C60C0C0C08080180C0C0C0606101886
:1002500088F8F00000161600C0201088484848D8DA
:1002600030E00E302E5050505E50281600E03838E6
:10027000E0001C1E02021E1CF8F88888F8701E1E82
:1002800010101E0EF0F8080818100E1E10101C0C8E
:10029000F8F80808F8F01E1E10101E0EF8F88888EE
:1002A000881E1E101010F8F88888881E1E00000096
:1002B000F0F8088898900E1E10101E0EF8F8808036
:1002C000F8F81E1E00001E1EF8F81E1E0000F8F8AA
:1002D0000C101E0EF8F8C0F0B8081E1E00021E1CFE
:1002E000F8F80000001E1E101010F8F8C000C0F84A
:1002F000F81E1E021E001E1EF8F8F080F8F81E1EE2
:10030000000E1E1EE0F0180818F0E0060E18101877
:100310000E06F8F80808F8F01E1E02020200E0F0CF
:10032000180818F0E000060E1814181E3E30F8F8F1
:100330008888F870001E1E00020E1C1070F8C88815
:10034000B8300C1C10121E0E0808F8F8080800003F
:100350001E1E0000F8F80000F8F80E1E10101E0E09
:1003600038F88080F83800061E1E0600F8F800F8FD
:10037000F800F8F8061E1C0206181E060838F0C021
:10038000F03808101C0E060E1C101878E0E07818E3
:1003900000001E1E00000888E87818181E161010AD
:1003A000F8F8087E7E40F8F880001E1EF8F87E7E81
:1003B000E0F818F8E0000000000000000000004035
:1003C00040404040081800004040C0801C121E1EE3
:1003D000F8F840C0801E1E101E0E80C040800E1E09
:1003E000100880C040F8F80E1E101E1E80C040800D
:1003F0000E1E120AF0F8481E1E0080C040C0C02E1B
:100400007E507E3EF8F840C0801E1E001E1ED8D8CA
:100410001E1ED8D87E3EF8F880C0001E1E061E188C
:10042000F8F81E1EC0C040C08040C0801E1E001EC6
:100430001E001E1EC0C040C0801E1E001E1E80C0AA
:1004400040C0800E1E101E0EC0C040C0807E7E10B8
:100450001E0E80C040C0C00E1E107E7EC0C0404038
:100460001E1E000080C040800A121E0EE0F0400EEA
:100470001E10C0C000C0C00E1E101E1EC0C000C096
:10048000C0001E181E00C0C000C000C0C0021E1C5C
:10049000021C1E0240C000C040101A061810C0C046
:1004A00000C0C0404E3C0E004040C0C0181E161098
:1004B000F0F8083E7C40F8F87E7E08F8F000407CBA
:1004C0003E02808080000080020000020202F0F004
:1004D0001E1EF0F01E1EF0F01E1EF0F01E1EF0F0AC
:1004E0001E1EF0F01E1EF0F01E1EF0F01E1EF0F09C
:1004F0001E1EF0F01E1EF0F01E1EF0F01E1EF0F08C
:100500001E1EF0F01E1EF0F01E1EF0F01E1EF0F07B
:100510001E1EF0F01E1EF0F01E1EF0F01E1EF0F06B
:100520001E1EF0F01E1EF0F01E1EF0F01E1EF0F05B
:100530001E1EF0F01E1EF0F01E1EF0F01E1EF0F04B
:100540001E1EF0F01E1EF0F01E1EF0F01E1EF0F03B
:100550001E1E40407E7E80C0C0F8800E7E1E1808A1
:1005600080F0F8881810181E1610101020F02020A7
:10057000F0040E04040E88F8E0E0F88804041E1E5F
:100580000404F8F87C7CB048C890264C483610002B
:1005900010000000E010C8284810E00608121412ED
:1005A0000806686878000000C04000C0400E1802CD
:1005B0000E18C0C0C0C0C00000000E0E0000000435
:1005C0000404E010E8A86810E006081610160806F3
:1005D0000404040404040000000000003048483013
:1005E000000000006060F8F8606018181A1A181807
:1005F00048685800000048587800000018080000BB
:10060000C0C000C0C07E7E101E1EF0F808F80800B2
:100610007E007E000002000000A0A0E01078000034
:10062000784878000000C08000C080101E04101EB2
:10063000107800804030080000100C02000C1E08EA
:10064000107800804030080000100C0200121A16CA
:10065000485878804030080000100C02000C1E083A
:100660000040400000387E46602000E0393BE0005A
:100670001C1E02021E1C00E03B39E0001C1E020290
:100680001E1C00E23B39E3021C1E02021E1C00E39A
:10069000393AE3001C1E02021E1C00E2383AE00058
:1006A0001C1E02021E1C00E03B3BE0001C1E02025E
:1006B0001E1C00E0F898F8F8484848481E0E000054
:1006C0001E1E10101010F0F8080818100EBEB0F022
:1006D0001C0CF8F98B88881E1E101010F8F88B89F6
:1006E000881E1E101010F8FA8B898B021E1E101027
:1006F0001000F8FA888A881E1E101010F9FB1E1EC2
:10070000FBF91E1EFBF9031E1E00F8FA1E1EF8F868
:100710008808F8F01E1E10101E0EF8FBF182FBF880
:100720001E1E000E1E1EE0F018091BF0E0060E183B
:1007300010180E06E0F01B0918F0E0060E1810184D
:100740000E06E0F21B091BF2E0060E1810180E064A
:10075000E0F3190A1BF0E0060E1810180E06E0F080
:100760001A081AF0E0060E1810180E0640E080E095
:1007700040040E020E04E0F018C878F0E8160E1ED1
:1007800012180E06F8F80103F8F80E1E10101E0ECF
:10079000F8F80301F8F80E1E10101E0EF8FA030107
:1007A000FBFA0E1E10101E0EF8FA0002F8F80E1ECC
:1007B00010101E0E1878E3E1781800001E1E0000CD
:1007C000F8F82020E0C01E1E04040602F0F8C8F865
:1007D00030001E1E00121E0C4048D8801C121E1E27
:1007E0004058C8801C121E1E5058C898101C121E5B
:1007F0001E005848D0981C121E1E5040D0801C125B
:100800001E1E4058D8801C121E1E404040C0C040D2
:10081000C0801C1E120E1E121A0A80C04080AEBE7E
:10082000F00880C858800E1E120A80D848800E1E1C
:10083000120A90D84898100E1E120A0090C05080DC
:100840000E1E120AC8D81E1ED8C81E1ED8C8181ED2
:100850001E00C0D01E1E80E058F8C00E1E101E0ED6
:10086000D8C850D8801E1E001E1E80C048D8800EDA
:100870001E101E0E80D848C0800E1E101E0E90D86E
:1008800048D8900E1E101E0E98C850D8800E1E100C
:100890001E0E80D040D0800E1E101E0E8080A0A0A4
:1008A000808002020A0A020280C040C0C01E1E16DA
:1008B0001E0EC0C008D8C00E1E101E1EC0D808C014
:1008C000C00E1E101E1ED0D808D8D00E1E101E1E20
:1008D00000010808205F0000000000000000000088
:1008E00000005F000000000000030003000000247F
:1008F0007E24247E2400002E2A7F2A3A000000460F
:100900002610086462000020544A54205000000061
:100910000004020000000000003C42000000000053
:1009200000423C0000000010543854100000001039
:10093000107C10100000000000806000000000101B
:100940001010101000000000006060000000004067
:100950002010080400003C62524A463C0000444219
:100960007E404000000064525252524C000024422B
:10097000424A4A3400003028247E202000002E4ABB
:100980004A4A4A3200003C4A4A4A4A3000000202BF
:1009900062120A060000344A4A4A4A3400000C52E5
:1009A0005252523C000000000048000000000000CD
:1009B00080640000000000001028440000000028AF
:1009C0002828282800000000442810000000000407
:1009D0000202520A0400003C425A565A1C007C1281
:1009E0001212127C00007E4A4A4A4A3400003C42FD
:1009F0004242422400007E424242241800007E4AC5
:100A00004A4A4A4200007E0A0A0A0A0200003C42A0
:100A10004252523400007E080808087E000000425E
:100A2000427E4242000030404040403E00007E088E
:100A30000814224000007E404040404000007E04F8
:100A40000808047E00007E040810207E00003C425E
:100A50004242423C00007E121212120C00003C4244
:100A60005262423C00007E121212324C0000244AB4
:100A70004A4A4A3000000202027E020202003E4060
:100A80004040403E00001E204040201E00003E40EE
:100A90002020403E00004224181824420000020496
:100AA0000870080402004262524A464200000000F8
:100AB0007E424200000000040810204000000000B8
:100AC00042427E0000000008047E0408000080808E
:100AD0008080808080003C4299A5A581423C002016
:100AE000545454780000007E48484830000000000C
:100AF00038444444000000304848487E0000003834
:100B00005454544800000000007C0A020000001801
:100B1000A4A4A4A47C00007E0808087000000000C3
:100B200000487A40000000004080807A0000007E8B
:100B30001824400000000000003E40400000007CFF
:100B4000047804780000007C040404780000003875
:100B500044444438000000FC2424241800000018F9
:100B6000242424FC800000007804040400000048D1
:100B70005454542000000000043E44400000003C57
:100B80004040403C0000000C3040300C0000003C75
:100B90004038403C00000044281028440000001C5D
:100BA000A0A0A07C0000004464544C440000000855
:100BB0000876424200000000007E00000000004273
:100BC0004276080800000000040204020000000051
:100BD0000A0F205F0000000000000000000000007D
:100BE000000000000000000000000000FEFE000009
:100BF00000000000000019190000000000001E1E87
:100C000000001E1E000000000000000000000000A8
:100C10000030FEFE3030FEFE300000031F1F0303D5
:100C20001F1F03000070F8D8FE9898000000000C09
:100C300018187F191F0F00001CB6A2F6CC606020A8
:100C400030000101000E1B111B0E00000000DC7EB5
:100C5000E6C6860C808000070F1C18191F1E1F1384
:100C6000000000001E1E0000000000000000000048
:100C700000000000000000E0FC1E02000000000078
:100C800000073F78400000000000021EFCE000006A
:100C90000000000040783F07000000000048783066
:100CA000FE30784800000000000001000000000055
:100CB00000808080F0F080808000000101010F0F33
:100CC0000101010000000000000000000000000021
:100CD00000407C3C0000000000000000000000001C
:100CE00000000000030303030300000000000000F5
:100CF000000000000000000000001C1C00000000BC
:100D000000000000C0F03C0E02000020381E070169
:100D10000000000000F0FC0EC6C60EFCF800000348
:100D20000F1C18181C0F070000000C06FEFE000028
:100D30000000001818181F1F18181800000C0606CD
:100D40000686C67C380000181C1E1B1918181800CF
:100D5000000C06C6C6C6C6FC3800000C18181818C9
:100D6000190F0F000080C070180EFEFE0000000377
:100D7000030303031F1F030000FE7E666666E6C6CC
:100D80008000000C181818181C0F070000F0FCCE8B
:100D90006666E6CC800000070F1C18181C0F0700C1
:100DA0000006060606E6FE3E0E000000101C0F03BD
:100DB000000000000038FCC6C6C6C6FC3800000FA4
:100DC0000F181818180F0F000078FCCE8686CEFC7E
:100DD000F80000000C1919191C0F03000000000096
:100DE000E0E000000000000000001C1C000000000B
:100DF00000000000E0E000000000000000407C3C3B
:100E000000000000008080C04060602030000001D1
:100E10000103020606040C00006060606060606010
:100E20006000000606060606060606000030206082
:100E30006040C0808000000C04060602030101002F
:100E4000000C0686C6667E1C00000000001B1B000E
:100E500000000000E0F0389CCCCCDCF8F000071F6C
:100E600038736766667727000000C0FC3E3EFCC012
:100E7000000000181F0F03030F1F180000FEFEC61E
:100E8000C6C6C6FC3C00001F1F181818181F0F000C
:100E900000F0FC0C060606060C0000030F0C1818E8
:100EA00018180C0000FEFE0606060CFCF000001FE1
:100EB0001F1818180C0F030000FEFEC6C6C6C6C6D3
:100EC0000600001F1F1818181818180000FEFEC68C
:100ED000C6C6C6C60600001F1F00000000000000B6
:100EE00000F0FC0C068686868C0000030F0C181997
:100EF000191F0F0000FEFEC0C0C0C0FEFE00001F94
:100F00001F000000001F1F0000000606FEFE060670
:100F10000000000018181F1F181800000000000033
:100F2000060606FEFE00000C18181818180F0F0011
:100F300000FEFEE0F0FC0E060200001F1F00000392
:100F40000F1E180000FEFE00000000000000001F41
:100F50001F1818181818180000FEFE3EF0F03EFE8C
:100F6000FE00001F1F000101001F1F0000FEFE1EEB
:100F7000F0C000FEFE00001F1F0000031E1F1F0028
:100F800000F0FC0E06060EFCF00000030F1C181803
:100F90001C0F030000FEFEC6C6C6C67C7C00001FF8
:100FA0001F0000000000000000F0FC0E06060EFC12
:100FB000F00000030F1C18183C6F070000FEFEC66F
:100FC000C6C6C6FC3C00001F1F000001031F1E1008
:100FD00000387CE6C6C6C68C0000000C181818182D
:100FE000190F0F0000060606FEFE060606000000AA
:100FF00000001F1F0000000000FEFE00000000FEB9
:10100000FE0000070F1C18181C0F07000006FEFC4E
:101010000000FCFE06000000001F1F1F1F00000054
:101020001EFEE000F0F000E0FE1E001F1F1E01018A
:101030001E1F1F0000020E3EF8F83E0E02000010B8
:101040001C1F03031F1C1000020E3E78E0E0783ED8
:101050000E02000000001F1F0000000000060686B0
:10106000C6F67E1E0E00001C1E1F1B181818180046
:10107000000000FEFE02020000000000007F7F4032
:101080004000000000020E38E08000000000000078
:10109000000000030E38200000000202FEFE0000E7
:1010A0000000000040407F7F0000000010181C0E70
:1010B000060E1C18100000000000000000000000D8
:1010C00000000000000000000000404040404040A0
:1010D0004040404000000103060400000000000002
:1010E000000000000000000000006030B0B0B0F070
:1010F000E000000E1F1B19190D1F1F0000FEFE60EF
:10110000303070E0C000001F1F0C18181C0F0700C3
:1011100000C0E07030303030600000070F1C18183D
:1011200018180C0000C0E070303060FEFE000007B0
:101130000F1C18180C1F1F0000C0E0B0B0B0B0E0CA
:10114000C00000070F1D191919190D00003030FCDF
:10115000FE36363600000000001F1F0000000000B1
:1011600000C0E070303060F0F0000003376E6C6C4F
:10117000667F3F0000FEFE60303030F0E000001F70
:101180001F000000001F1F0000003030F7F70000B4
:101190000000001818181F1F181818000000303021
:1011A000F7F700000000006060607F3F0000000073
:1011B00000FEFE80E07030100000001F1F010307DA
:1011C0001E181000000606FEFE00000000000000D1
:1011D000000F1F181818000000F0F030F0E030F099
:1011E000E000001F1F001F1F001F1F0000F0F06025
:1011F000303030F0E000001F1F000000001F1F0013
:1012000000C0E070303070E0C00000070F1C1818FC
:101210001C0F070000F0F060303070E0C000007F6D
:101220007F060C0C0E07030000C0E070303060F049
:10123000F0000003070E0C0C067F7F000000F0F0AA
:1012400060303030300000001F1F00000000000040
:1012500000E0F0B0B0B0B0306000000C19191919FE
:101260001B1F0E00003030FCFC303030000000004E
:10127000000F1F181818000000F0F000000000F028
:10128000F000000F1F1818180C1F1F000030F0E0AE
:101290000000E0F030000000010F1E1E0F010000F2
:1012A00070F00000C0C00000F07000071F1E0303B4
:1012B0001E1F0700001030F0C0C0F03010000010FA
:1012C000181E07071E1810000010F0F08000F0F044
:1012D0003000000060637F1F0F01000000303030DD
:1012E00030B0F070300000181C1E1B1918181800C0
:1012F00000000000FCFE02020000000001013E7E32
:101300004040000000000000FEFE00000000000061
:1013100000007F7F0000000000000202FEFC0000D1
:101320000000000040407E3E010100000080C0C07F
:10133000C0808080C00000010000000101010000A9
:101340001BD20A0C206003030407070B08020404E5
:101350000507020301050705070707070706070733
:101360000203070707050A07070708080708090512
:101370000508060A0907070707080608070B0806F5
:101380000805030507070206060607060406070305
:101390000306030B070606060506040705080705EE
:1013A00006060106070900000000000000F00E20FC
:1013B0000000060106010000000040C878CE784E0B
:1013C0000800100010000000001824FC47840810DA
:1013D00020E030201000182422924C209048242233
:1013E000C00020100000001020201000C03C22226D
:1013F000528C4020102020201000102006010000F8
:10140000E0180601708000000000817E80601000FE
:101410000A041F040A0000000000404040F8404059
:10142000400000003000000000008070404040009C
:101430000000003000806018042010000000E01858
:10144000040202C23C10202020100000000084741E
:101450000E20203020200084424222221C302020F6
:10146000202020000000042222D20C102020202066
:10147000100040605048C4724E0000000030000070
:101480000018161212E20210202020100000F0288E
:1014900014141212E2102020202010000282423286
:1014A0000A062010000000008058242222D20C10CE
:1014B0002020201000003844424242A27C202020FC
:1014C000201000000018300000001880700040A0BC
:1014D000A01010080800000010102020505050509C
:1014E0005050500000000000000008081010A0A09C
:1014F000402020101000000004C222221C20000006
:101500000000E018E4140A0ACA3A84781020405017
:1015100050501010000000C060584442FE300000DF
:101520000000003080702E222232CC30202020207B
:101530001000F00804020202040010202020100015
:1015400080700E02020284783020202020100000DB
:1015500080702E2222222202302020202020000013
:1015600080702E2222222230000000000000F008AD
:1015700004024242C204001020202030000080708B
:101580002E202020A0700E3000000000003000004F
:101590000080720E022030200000000082720E20B7
:1015A0002010000080702E609008040230000000BF
:1015B0000010200080700E0000003020202020202D
:1015C00080700E18E0403088740E3000000000007B
:1015D0000030000080700E1820C080700E300000B7
:1015E000000000300000F00804020284780010209F
:1015F0002010000080704E4242221C30000000008B
:101600000000F0080402028478001020205080803E
:1016100080704E42C2221C300000000010200018D2
:1016200024222222C2041020202020100000028246
:10163000720E0202003000000000E01E0000008078
:10164000700E1020202020100000FE008040300886
:101650000630201000000000FE00C0300CFE00C06C
:10166000300C0230100000003010000000000002BA
:101670008C70708804022010000000102000029C72
:101680006010080400300000000000804222120AAE
:101690000602302020202020000000C0380701E092
:1016A000908000000FF0000000F00000C1390780BA
:1016B000E010000010080402040810000000000000
:1016C000000000000000000000808080808080809A
:1016D0000102000080484848C870102020203000D7
:1016E00080780F0808F0302020201000E010080853
:1016F0000810102020201000E0100808887807103B
:10170000202020300000E050484848701020202061
:10171000100088780E0930000000E0100808887872
:1017200090A0A0A070008078170808887030000092
:101730000000300080780230000000887A8070005D
:10174000807847A010083000001020008078073013
:1017500000008078100808C8300808887030000041
:1017600000201000000030008078100808887030D9
:10177000000000003000E010080808F010202020D1
:1017800010008078080808F0302020201000E010B9
:1017900008088878102020E0300080781008083091
:1017A0000000000000304848881010202020100061
:1017B000C8380E0810202000C038000000C03810C3
:1017C0002020201030007880806018003010000049
:1017D000F800C020F800E0180030000000300000E1
:1017E0000008B040A01008201000001020007880F1
:1017F0008060188070100000008848281808302089
:10180000202020002020DC030101007080800000E7
:10181000FFF0000001D92620808060100000C02069
:10182000204080806000000000000000FE020202F4
:1018300002020202FE3020202020202020301C62E4
:101840000A0C206002020508070D080204040507BF
:101850000204020607060707070707070707020231
:10186000070707050A07070708060608080406070A
:1018700007090809070908070808070C07080604EC
:1018800006040809030606060606050606020407FE
:10189000020A0606060605050506060A06060506E8
:1018A00002060809000000007E7E303007070007AE
:1018B000070000000000C0D8F8DED8F8DE180030BD
:1018C000000030000000387C64FF64E4C810202071
:1018D000F02030103C7E427E3CC02018E6F010F034
:1018E000E000000000300000001030203010DCFE6E
:1018F000227EDC806020103020202010302007075E
:101900000000F8FE07011070E0800107FEF880E09B
:101910007010120C3F0C120000000000202020FC70
:10192000202020000000100000000000F0702020A7
:10193000202000000000000030300080E07C1F0309
:10194000C0F030000000FCFE020202FEFC1030205D
:10195000202030100404FEFE000020203030202023
:10196000040682C2623E1C20303020202020040663
:10197000222222FEDC10302020203010C0A09884CB
:10198000FEFE8000000000303000001E1E1212F229
:10199000E210302020203010F8FC161212F2E01075
:1019A000302020203010020282E27A1E0600203011
:1019B00010000000DCFE222222FEDC10302020205D
:1019C00030103C7E424242FEFC00202020301000BD
:1019D000181830301818F0706060909008080400F3
:1019E00000000010102090909090909090000000C7
:1019F00000000000040808909060602010100000B3
:101A000000000462721E0C0030300000F00CF4FA8A
:101A10000AFAFA040CF00030205050505010100018
:101A200080F8FE86FEF88030300000003030FEFE88
:101A300022223EFCC030302020203010F8FC06026C
:101A400002020400103020202010FEFE02020206D6
:101A5000FCF83030202020301000FEFE222222220E
:101A6000303020202020FEFE2222222230300000B2
:101A70000000F8FC06024242C2C4001030202020C0
:101A80003030FEFE20202020FEFE3030000000001E
:101A9000303002FEFE022030302000020202FEFE44
:101AA000202020203010FEFE70D88C06023030003E
:101AB00000103020FEFE000000000030302020200A
:101AC0002020FE0E3CF0C0300CFEFE300000000076
:101AD00000003030FE061C38E0C000FE3000000080
:101AE00000103030F8FC0602020206FCF80010304C
:101AF000202020301000FEFE4242427E3C3030006A
:101B000000000000F8FC0602020206FCF80010309B
:101B10002060E0B09080FEFE2262E2BE1C00303009
:101B20000000001030201C3E322262E2C41020204F
:101B300020203010020202FEFE02020200000030ED
:101B400030000000FEFE00000000FEFE10302020ED
:101B5000202030100E7EF080F07E0E0000303030FD
:101B600000000E7EF080E03E3EE080F07E0E000041
:101B700030300000000030300000068EF870F88E23
:101B80000630300000003030060E18F0F0180E0657
:101B9000000000303000000002C2F23E0E02303081
:101BA00020202020FFFF0101F0F08080031F7CE057
:101BB000800000000030F0C00101FFFF8080F0F0E5
:101BC00010180C06060C18100000000000000000A1
:101BD0000000000000000000008080808080808085
:101BE0008080010302000000C0E82828F8F01030CF
:101BF00020203030FFFF0808F8F03030202030106F
:101C0000F0F808080810103020202010F0F808081C
:101C1000FFFF103020203030F0F848487870103046
:101C20002020201008FEFF09090030300000F0F8E5
:101C30000808F8F810B0A0A0F070FFFF0808F8F04E
:101C4000303000003030FBFB30300008FBFB808080
:101C5000F070FFFF60F09808003030000010302076
:101C6000FFFF3030F8F81008F8F01008F8F03030C6
:101C70000000303000003030F8F80808F8F030305C
:101C800000003030F0F80808F8F010302020301054
:101C9000F8F80808F8F0F0F020203010F0F8080804
:101CA000F8F810302020F0F0F8F810181830300054
:101CB0000000307848C888202020301008FEFE0838
:101CC000080010302020F8F80000F8F8103020202C
:101CD000303038F8C0C0F83800103030100078F8D4
:101CE00080C03838C080F878003030000000003004
:101CF000300018B8E0E0B81830300000303038F864
:101D0000C0C0F8380090F070100008C8E8781830AB
:101D1000302020202020FEDF0101000070F08080B4
:101D2000FFFFF0F00101DFFE20208080F070000056
:101D3000E0101020408080700000000000000000D3
:101D4000FE02020202020202FE3020202020202099
:101D5000203019920A0C206002010408060B0801C9
:101D60000303050702040105060506060706060625
:101D700006060102070707050A0806070706060701
:101D80000703040606080708060807060707080BE6
:101D900006070603050308080206060506060406EC
:101DA00006010305010906060606040505060509E0
:101DB000050505050105080900000000FE200700D3
:101DC0000007000000008090F89690F89610003010
:101DD0000000300000001824FF4444842020F0203C
:101DE00020101C22221C80700CC22020C000000089
:101DF0002010000010202010DC2222225C806000D5
:101E000010202020201010200700F806011060800C
:101E10000106F88060100A041F040A000000000098
:101E2000404040F84040400000003000000000000A
:101E30008070404040400000000000300000E01C86
:101E4000038070000000FC02020202FC102020202F
:101E500020100404FE000020203020200C8242428A
:101E6000221C3020202020200402222222DC1020EC
:101E70002020201060504844FE4040000000003008
:101E800000001E12121212E2102020202010F8145E
:101E9000121212E0102020202010020282621A0684
:101EA000002010000000DC22222222DC1020202052
:101EB00020103C42424242FC0020202010001830FA
:101EC0000018807040A0A01010080800000010103A
:101ED0002020505050505050500000000000000092
:101EE00008081010A0A040202010100000000402DC
:101EF000E2221C0000200000F00C04F20A0AFA049E
:101F00000CF00030204050505010100000E0988637
:101F10008698E0003000000000000030FE222222FF
:101F20003CC0302020202010F804020202020400ED
:101F3000102020202010FE0202020204F83020208F
:101F400020201000FE2222222222302020202020C9
:101F5000FE2222222202300000000000F8040202C9
:101F60002222E400102020202010FE20202020200B
:101F7000FE3000000000003002FE0220302000028F
:101F800002FE20202010FE205088040230000000B5
:101F90001020FE0000000000302020202020FE063F
:101FA00038C0C03806FE3000000000000030FE06D9
:101FB0001820C000FE30000000003030F80402029B
:101FC000020204F80010202020201000FE424242AD
:101FD000423C300000000000F8040202020204F853
:101FE0000010202020609080FE222262A21C00307F
:101FF0000000000010201C22222222C410202020D9
:102000002010020202FE0202020000003000000066
:10201000FE0000000000FE00102020201000063806
:10202000C00000C0380600000030300000001EE094
:1020300000C0380638C000E01E000030000000007C
:102040000030000006887070880630000000003004
:10205000020C10E0100C02000000300000000282B0
:1020600062120A06302020202020FF0101F080802B
:10207000031C60800000000030C00101FF8080F080
:102080001008040202040810000000000000000014
:102090000000000000000000808080808080808040
:1020A000010200008048484848F0102020202030DD
:1020B000FF10080808F0302020202010F008080841
:1020C000101020202010F008080808FF1020202001
:1020D0001030F0484848487010202020201008FE9A
:1020E000090900300000F008080808F810A0A0A0B6
:1020F0009070FF10080808F0300000000030F93040
:102100000008F9808070FF40A01008300000102007
:10211000FF30F8080808F0080808F0300000003028
:1021200000000030F810080808F03000000000300F
:10213000F008080808F0102020202010F8100808E7
:1021400008F0F02020202010F008080808F81020DF
:10215000202010F0F81008083000000030484848EF
:1021600088202020201008FE0808080010202020C9
:10217000F800000000F810202020103018E000E0E7
:1021800018000030000018E000E018E000E018003F
:10219000003000000030000018A040A018300000FF
:1021A000003018E000E0180080700000088848281F
:1021B0001830202020202020DE01010000708080C7
:1021C000FFF00101DE20208080700000C020204050
:1021D000408080600000000000000000FE0202025B
:1021E00002020202FE3020202020202020302AF689
:1021F0000A10206003030507070C0B0104040609FD
:102200000204020407050706060707070707040577
:10221000090909060E09090A0B0A0A0B0B05070B27
:10222000080D0B0A0A0A0908080A080B0A07090719
:10223000020707080207070608060508070304083F
:10224000040B0707070706060407070A0707060522
:102250000105080800000000000000C03E0803005F
:102260003C06003C06000000000020E0382620E08C
:10227000380D0301010D0301001C32E25E830C06E0
:10228000081E090C0700384442221CC06010884414
:10229000428000080402010000070808040380804F
:1022A0004040FCA2120E40C040070C0808080B0674
:1022B0000D0908043C0080E030083F4000000000A9
:1022C00006F8100807012424187E182400000000D6
:1022D000000040404040FC404040400000000007FB
:1022E000000000000000140C0000000001010101CA
:1022F00000000C0C0080700C06010000E0180402C5
:102300000202FC07080808040300000080720E089F
:102310000C0B08000000040282621C080C0A090869
:10232000040000004462920C0C0808040300804082
:102330003008E41E0101010D03010000101E22C23D
:10234000020C080808060100C070181414E2020705
:10235000080808060100040202C2320E0208060143
:102360000000000000805C2242A21C07080808044C
:10237000030000F00C0202827C080809050301003A
:10238000000060600C0C0000000000606020140C75
:102390000000804040402020201010000101010278
:1023A0000202040490909090909090909000000011
:1023B0000000000000001010202020404040800459
:1023C0000402020201010100000C8242221C0803E7
:1023D00000000000C0300804C4221212E2320408D7
:1023E000F0000F10204F8888848F898844261108B8
:1023F00000000080E09884FE00080C0B0000080834
:102400000F08000080724E4242A21C080C0B080804
:1024100008040300E0180404020202041C0603047A
:102420000808080804020000000080720E02020280
:102430000204F8080C0B0808080804040300000054
:1024400080724E42C272020E080C0B080808090C7A
:102450000200000080724E42C272020E080C0B088D
:10246000000001000000E018040402020242C45C03
:1024700046030408080808080C03000000008072E6
:102480004E424040C0720E080C0B000000080C0BBE
:102490000800000080720E080C0B0800000000000D
:1024A000C23A060E08080403000000008072CE2223
:1024B00010080A0602080C0B0800010A0C080800A4
:1024C000000080720E020200080C0B080808080EBB
:1024D000000080720EFC0000C020907C0E080C0BE7
:1024E00008000F0601080C0B0800000082720E386D
:1024F000C00000E21E080C0B080000030C070000DF
:10250000C0300804020202028478030408080808A4
:1025100004020100000080724E424242221C080C5C
:102520000B08000000000000C03008040202020294
:102530008478473C282848444422210000008072C7
:102540004EC242221C080C0B080000030C080000BD
:102550001C224282041C0C07040808080700080615
:102560000282720E020200080C0B08000000827248
:102570000E0202000080720E070808080808040313
:102580000000C23E028240300E060F04030000002D
:102590000000827E02C0328A7E8242300A0F06012B
:1025A00000000F0601000000000002029EE2201061
:1025B0000A06080C0A0100080F08080000021EE2C3
:1025C00020100A08080F0800000000000E824222B6
:1025D0001A0602080C0B0808080C0200000080789C
:1025E000060202605C43400000007EC0000F000055
:1025F0000002C23A064040601C03000040300C025A
:102600000C3040000000000000000000000000004E
:1026100000004040404040404040020C000000802C
:10262000402020C0600F0808040E0B040080724E8A
:102630002020C0040B080804060100C040202060D0
:102640000708080804000080402020C0720E0F0810
:1026500008040E0B040000C0402020E0070A0A090D
:1026600005000020A0702C201C03000000C04020AA
:102670002020E020304D4A4A4A5130000080728EBE
:102680004020E00C0301000C0B0420A0640C0B04A0
:102690000000A064201C03000080728E60202020B7
:1026A0000C0301030C0804000080720E0C0B0400E4
:1026B00000A060804020E0804020E00C0301000C7E
:1026C0000301000C0B040020E0804020E00C03011B
:1026D000000C0B0400C040202020C007080808049C
:1026E000060120A0E0402020C05C0B080804020185
:1026F0000080402020C060070848645E030000A0FE
:10270000E04020600C030000000000C0202020609A
:102710000E080909060000A070280C0B080440A050
:1027200060000080600C0B08040E0B042060C000E9
:102730000020E000000F040201002060C0000080C3
:10274000E00020E000000F0201000F040300002061
:1027500020E0402020080C02010E08002060C0008C
:1027600000A06020100F04020100402020A0602083
:102770000C0A090804008040380C023847000000A9
:10278000FEFF000000E21C40301C0201008080803F
:10279000000000800100000001010100FE020202B1
:1027A000020202FE0F0808080808080F2C060A108B
:1027B000206002020608070E0C0204040509020448
:1027C00002040706070707070707070702020808AA
:1027D00008060E0B0A090B09090A0C06080C091059
:1027E0000C0A090A0C07080B0B0F0B0A0903040358
:1027F0000708020707050706050708040309040C74
:102800000806070706050508080A08080605010561
:102810000708000000003EFE0C0D1E1E00001E1EDC
:102820000000000000002020F02E20F02E20010FDC
:1028300001010F0101011C3E62FFC2860C060C085B
:102840001F090F073C7E427E3C00C0201884C24016
:10285000C080000000080403000000070F080F07F5
:102860000080403CFEE2221EAC602000070F0C08F6
:10287000080B07060D0C04021E1E0000E0F80C02F7
:10288000071F3040020CF8E040301F0728381E3880
:1028900028000000000040404040FC404040400014
:1028A000000000070000000000004C3C0000000099
:1028B0000101010100000C0C00C038060C030000EF
:1028C000F8FC060206FCF803070C080C07030202DA
:1028D000FEFE000008080F0F0808080C0686FE3CE4
:1028E00000080C0E0D0C0C0208044666FEDC800C81
:1028F0000C080808070380402018FCFE00030303AF
:10290000030F0F03203C363666E6C20C0C0C080899
:102910000403E0F83C2466C28203070C080C07039A
:102920000C060606E61E02000008070000001CBE9A
:102930007262E2FE9C070F0808080F07387CC68207
:1029400086FCF808080C0407030060600C0C60604B
:102950004C3C804040402020201000010101020238
:10296000020420202020202020200101010101015B
:102970000101102020204040408004020202010199
:1029800001001C1E02C27E3C00000C0D0000E01085
:102990000884C2622222C2E20408F0000F1020471D
:1029A0008F8884868F8844221108000080700C1E56
:1029B00078E0800000080C0B090101010B0F0E08E4
:1029C0000202FEFE424242E2BE1C08080F0F080847
:1029D00008080F07F0FC0C020202040C1E01070697
:1029E0000808080804020202FEFE020202060CF8B1
:1029F000F008080F0F0808080C0603010202FEFE8B
:102A00004242F2020E08080F0F080809080E0202DF
:102A1000FEFE4242F2020E08080F0F0808010000F5
:102A2000F0FC0C020202848C9E8001070608080854
:102A3000080F07000202FEFE42404042FEFE020274
:102A400008080F0F080000080F0F08080202FEFE1A
:102A5000020208080F0F08080000000202FEFE0232
:102A6000070F0808080F07000202FEFE42E290105E
:102A70000A06020208080F0F0808010B0E0C0808CE
:102A80000202FEFE020200000008080F0F080808FC
:102A9000080E0202FE063EF8C00000C03806FEFE28
:102AA000020208080F080801070E030008080F0FAC
:102AB00008080202FE060E3870C282FE02020808F2
:102AC0000F0808000001030F0000F0FC0C020202D6
:102AD000020CFCF0010706080808080607010202BC
:102AE000FEFE4242427E3C08080F0F08080000002C
:102AF000F0FC0C020202020CFCF001070608183878
:102B0000684647010202FEFE4242C2C27E3C00000D
:102B100008080F0F080800030F0C08081C3E72E29B
:102B2000C2841E0F040808090F070E0202FEFE02EF
:102B3000020E0008080F0F0808000202FEFE020045
:102B40000002FE02020000070F0808080807000044
:102B500002020E7EF28000C0320E02000000000170
:102B60000F0E01000000020E7EF28000E21E7EF2D7
:102B70008000E21E02000000010F0F000000010FA4
:102B80000E0100000202061EFAE0A01A0602020868
:102B90000C0C0B00010B0F0C080802061E7AE280D9
:102BA000601A0602000008080F0F08080000001E47
:102BB00006C2E27A1E0602080C0F0B0808080C0F6A
:102BC000FEFE027F7F40067880000000030C02FEBC
:102BD000FE407F7F40300C020C30400000000000BF
:102BE0000000000000000000000040404040404065
:102BF00040400204000040602020E0C000060F09B1
:102C0000090F0F0802FEFE2020E0C0000F07080891
:102C10000F07C0E0206060070F080804C0E0202212
:102C2000FEFE00070F08080F0F08C0E02020E0C0DC
:102C3000070F0909090520FCFE2206080F0F0800EE
:102C4000C0E02020E0E0203D5B5A5A5B593002FE94
:102C5000FE4020E0C000080F0F08000F0F0820E61C
:102C6000E600080F0F0820E6E6407F3F02FEFE0068
:102C70008060202000080F0F09030E0C080802FED8
:102C8000FE00080F0F0820E0E04020E0C04020E0F8
:102C9000C000080F0F08000F0F08000F0F0820E0FA
:102CA000E04020E0C000080F0F08000F0F08C0E050
:102CB0002020E0C0070F08080F0720E0E02020E0F8
:102CC000C0407F7F48080F07C0E02020C0E0000719
:102CD0000F08487F7F4020E0E0402060080F0F0889
:102CE0000000C0E0A020600C090B0F0620F0FC20C3
:102CF0002000070F080420E0E00020E0E0000007CB
:102D00000F08080F0F082060E0A000A0602000005E
:102D1000030F0C03000060E0A000A0E0A000A06092
:102D200000010F0E01010F0E01002020E0E0806085
:102D3000202008080C030F0E080820E0E0A000A0E7
:102D400060206060433F0E0100006020A0E0E020B2
:102D5000080E0F0B080C807C3E0202003F7E4040B4
:102D6000FE7F02023E7C8040407E3F0080808000EB
:102D700000008001000001010101FE0202020202C6
:102D800002FE0F0808080808080F29260A1020600C
:102D900002010308060C0B010404070902040104E4
:102DA00006040606070606070606010207090705C8
:102DB0000E0B09090A09080A0B05060B090E0C0A75
:102DC000080A0A07090B0B0F0B0A0903040308087A
:102DD000020607050705040707030308030B070698
:102DE000070705040407070B070706040104090881
:102DF00000000000FE0B1E001E0000002020F02E30
:102E000020F02E20010F01010F0101011C22FF42C1
:102E1000820C06081F0808073C42423C00C02010F4
:102E20008C42408000000C020100000007080807E7
:102E300000805C62E2121CA0602000070C080808F9
:102E40000706090808041E00E018040207182040BD
:102E5000020418E0402018072424187E18242400B7
:102E600000000000000040404040FC404040400066
:102E7000000000070000000000002818000000000B
:102E800001010101000800C038060C030000F8042D
:102E9000020204F80304080804030404FE00000806
:102EA0000F080C02028244380C0A0908080C0402BC
:102EB0004262528C0808080804038040201804FE6F
:102EC0000001010101010F01101C121222C20808A9
:102ED00008080403E058242262820304080804035B
:102EE0000402020282720E0000000C0300001CA209
:102EF0004242A21C0708080808073844828244F8A6
:102F000008080404030020082000281840A0A0108E
:102F100010100800000001010102202020202020C4
:102F20002020200101010101010101010810101000
:102F3000A0A040020101010000000C0282621C00FE
:102F4000000B0000C0300804C4221212E232040850
:102F5000F0000F10204F8888848F8988442611083C
:102F6000000000C0380638C000000008080E090143
:102F70000101090E08080202FE424242649800085C
:102F8000080F080808080403F008040202020204FB
:102F90001E0102040808080804020202FE020202DE
:102FA000020408F008080F080808080402010202D9
:102FB000FE424242E2060008080F080808080C0218
:102FC0000202FE424242E20608080F080800000022
:102FD000F008040202024244CE400102040808083C
:102FE000080807000202FE4242404242FE02020876
:102FF000080F08080008080F08080202FE0202086D
:10300000080F0808000202FE02020C080807000070
:103010000202FE4242A0120A06020008080F080837
:1030200000010A0C08080202FE020200000000086B
:10303000080F080808080C020202FE0C30C000004D
:1030400080700CFE020208080F080801020E010839
:10305000080F08080202FE081020C00202FE020249
:1030600008080F0808000001020F0000F008040221
:103070000202020408F00102040808080804020120
:103080000202FE828282443808080F08080000000D
:10309000F00804020202020408F001020408081801
:1030A000282442410202FE4242C2241800000808BD
:1030B0000F080800030408081824224242840E0E58
:1030C0000408080804030E020202FE0202020E00B7
:1030D0000008080F080800000202FE0202000202B7
:1030E000FE020200000304080808040300000202B4
:1030F0001EE2000000E21E020200000000070807B6
:103100000000000002060E728002825EE20000E211
:103110001E020200000000030C030000030C030069
:1031200000000202060AB240B00A06020208080CB9
:103130000A0100010A0C080802020E32C0201A0619
:103140000202000008080F0808000000000E0282BA
:1031500062120E0200080E09080808080C02FE029E
:10316000027F4040067880000000030C0202FE400F
:10317000407F40300C02020C304000000000000094
:1031800000000000000000000000404040404040BF
:103190004040020C0000402020A0C00006090904A5
:1031A0000F0804FE402020408000070808080403A0
:1031B000C02020204007080808048040202044FE4A
:1031C0000003040808040F04C0A0A0A0C00708085A
:1031D000080420FC2222080F080800C0202020E05C
:1031E00020304D4A4A4A493004FE402020C00008A1
:1031F0000F0800080F0840E200080F080040E240F6
:10320000403F04FE008060202000080F0901020CEE
:10321000080804FE00080F0840E0402020C04020BD
:1032200020C000080F0800080F0800080F0840E041
:10323000402020C000080F0800080F088040202010
:10324000408003040808040340E040202040804000
:103250007F44080804038040202040E000070C0859
:1032600008447F4040E0402020080F080000C020B4
:1032700020600C09090620F82020000F080420E037
:10328000000020E00000070808040F0420E02000F0
:1032900020E0200000070807000020E0200020E0D8
:1032A000200020E0200000070C0300070C030000B2
:1032B0002060A000A06020080C0A010A0C0820E091
:1032C000200020E0204040231C070000006020A0D8
:1032D0006020080C0B08080C80780402001F2040B6
:1032E000FEFF0204788040201F00008080800000E4
:1032F000000080010000000101010100FE02020245
:10330000020202FE0F0808080808080F20550A0FDD
:10331000206002010408060A0901030305070203ED
:10332000010606050606060606060606010206074B
:1033300006050C0907080806050808010406060B1F
:103340000809060A07050708090B0807070306030B
:10335000070803060605060604070601020501091B
:10336000060606060405040605090505040401040D
:10337000070800000000FE1A1E00001E00000000EA
:1033800020A07C2020A07C20021E0202021E02023D
:1033900038444487840808107010100E38444438AC
:1033A0008060108C80000000180402000E10100EC7
:1033B000805C2262920C00C0000E101010100A04F3
:1033C0000A101E00F00C021E6080020CF080601ECD
:1033D00024187E18240000000000808080F0808087
:1033E000800000000E0000000000403800000002D5
:1033F0000202001800008060180660180600000035
:10340000F804040404F80E101010100E1008FC004C
:103410000010101E101008040404C43810181412F0
:1034200010100844444444B808101010100E00C096
:10343000300CFC00060404041E04007C4444448454
:1034400008101010100EF088444444840E10101020
:10345000100E040404C4340C00100C020000B84424
:10346000444444B80E101010100E7884848444F83C
:10347000101010100806601800604038804040208E
:103480002010000202040408202020202020200216
:1034900002020202020210202040408008040402BE
:1034A00002000402C2423C00001A0000C03008883A
:1034B00044242444E40408F00E302046484844469E
:1034C000480804020000C0300C30C000001806029A
:1034D000020202020618FC44444444B8001E1010C4
:1034E0001010100EF008040404040408060810105C
:1034F00010101008FC040404040408F01E1010103E
:1035000010100806FC44444444041E10101010100F
:10351000FC444444441E00000000F0080404848479
:103520008488060810101010100EFC4040404040E7
:1035300040FC1E0000000000001EFC1E000000FCFD
:103540001010100EFC40A01008041E000006081009
:10355000FC00000000001E1010101010FC0C30C009
:10356000000000C0300CFC1E000000061806000021
:10357000001EFC041860800000FC1E000000020C0D
:10358000101EF008040404040408F00608101010CB
:1035900010100806FC84848484781E00000000005B
:1035A000F008040404040408F000060810101010C9
:1035B00010182620FC8484848478001E00000002F9
:1035C0000C103844448408081010100E040404FC45
:1035D0000404040000001E000000FC0000000000C5
:1035E00000FC06081010101008060C30C000000087
:1035F000C0300C0000000618060000001CE00000AF
:10360000E01CE00000E01C00021C06000000061C9C
:103610000200040830C0C03008041008060000068C
:103620000810041860806018040000001E000000EC
:10363000040404C424140C18141210101010FE02F8
:1036400002FE8080061860800000000000061860FE
:103650000202FE8080FE8060180418608000000076
:10366000000000000000000000000000808080805A
:10367000808080800204080000004020202020C0BC
:103680000C1212120A1EFE40202020C01E0810102C
:10369000100EC0202020400E10101008C020202046
:1036A00040FE0E101010081EC020202020C00E1258
:1036B0001212121220FC2222001E0000C020202024
:1036C00020E0206A949494949260FE40202020C0D0
:1036D0001E000000001EE81E00E8807EFE00804004
:1036E000201E02040810FE1EE0402020C0402020C2
:1036F000C01E0000001E0000001EE040202020C070
:103700001E000000001EC020202020C00E1010103F
:10371000100EE040202020C0FE081010100EC02027
:10372000202040E00E10101008FEE04020201E0077
:103730000000C020202020101212120C20F820209F
:10374000000E1010E000000000E00E101010081E27
:103750006080008060000618060060800080608045
:1037600000806000061806000618060020C000C091
:1037700020100C020C10608000806000C63806002B
:103780002020A06018161010807C0202007E80802D
:10379000FEFE02027C8080807E003008081020201F
:1037A0001800000000000000FC041494946404FC61
:1037B0001E1010141010101E14400A0B206002027C
:1037C00003060608070103030406020301050505B5
:1037D00006060506050505060203050506040A0793
:1037E000060506050507060204050409070705077F
:1037F000060505070509060506030303040502057A
:10380000050405050405050203040209050505056F
:103810000305030504080505050303040506000068
:103820000000601E2000080608000000C8784EC88E
:10383000784E200000200000800C1222C30400609B
:10384000202000000C92522CD02824C2200000001E
:1038500000202000C0201C32CAC4200020202000EC
:1038600000200800E01C0260800000827C80600074
:1038700014380E14000000002020E0382020000042
:1038800000000000000080602020200000000020D8
:1038900080601806012000000000F00C02C23C000D
:1038A000202000000004E21E0020202020200080B4
:1038B0004422120C20202020200080001412F20C40
:1038C000002020200000605048E45E00000020003E
:1038D00080181612E202002020200000E018149246
:1038E00062002020000002C2320A06200000000010
:1038F000E01C12F20C0020200000001824A2621C20
:103900002020200000000008200000000880600047
:10391000205050508800000000005050505050007F
:10392000000000008088505050200000000000007F
:103930006212120C20000000E0180424524A7A4A55
:10394000221C0020404040404000000000C0704C5D
:10395000427CC020000000000020E01E121212EC89
:10396000202020202000F00C0202820020202000D5
:10397000E01E0202C23C202020200000E01E1212A5
:10398000122020202020E01E121212200000000031
:10399000F00C020212D23400202020200000E01E91
:1039A0001010F01E200000002000E01E200000008B
:1039B000E01E20200000E01E30C80420000000208F
:1039C000E01E000020202020E01E0678806018E61F
:1039D0001E200000002000002000E01E0C30C0E08F
:1039E0001E20000000002000F00C020202C23C0079
:1039F000202020200000E03E22221C2000000000A9
:103A0000F00C020202C23C00202020202040E01ED8
:103A10001232D20C200000002000800C1222C200C2
:103A20002020200002E21E02020020000000E01E12
:103A3000000000E01E00202020200000FE8060101A
:103A40000C20000000003EC060180EF040300C005A
:103A5000200000002000000000804678880420003C
:103A60000000200006D8201804002000000080423A
:103A700022120A06202020202000C03E02E0800002
:103A800007F8000000E000C23E80E000100C021CBD
:103A900000000000000000000080808080800102A3
:103AA0000000E01008C8380020202000C03E088830
:103AB000702020200000E010088800202000E01086
:103AC00008C83E0020202000E030282810002020D8
:103AD00020000088780C80600000E01008C8388062
:103AE000A0A06000C03E08C8302000002000C03AFE
:103AF000200000C03A806000C03EE010200000209E
:103B0000C03E2000C0381008C83008C8302000006F
:103B1000002000002000C03808C83020000020002D
:103B2000E0100888700020200000C038088870E08D
:103B300020200000E01008C838002020E000C03835
:103B400008200000001028C8082020200000C83CE1
:103B500008002020C03800C0380020202000F88055
:103B6000403020000000F8806010F88040302000D5
:103B7000000020000000008870E0102000000020FD
:103B800000F800C03080402000000088482818203D
:103B90002020202020E01E00E08000F00EE0000049
:103BA00000C23E20806000001008081010000000D5
:103BB0000000FE025A0A02FE20202020202014616C
:103BC0000A0B20600202030605080801030305052D
:103BD00002030205050605050605050505050202A1
:103BE000050505050A06060507050507070203067C
:103BF00004090707050806050607060A0606050361
:103C00000503050602050504050503060502020570
:103C10000208050505050304030505080505040359
:103C20000104050600000000BEBE20200E000E00AC
:103C3000000048E85EE85E480020002000009C3E4E
:103C400033F2E400206020000C128C6018C620C003
:103C50000000200000002000C0EC3E327ECCE000DE
:103C600000202020200020200E00F0FC060060C074
:103C700006FCF0C06000120C3F0C120000000000B7
:103C80002020F8202000000000008080E06020203C
:103C900020000000808020200080700C03C02000E5
:103CA0000000FCFE02FEFC00202020000804FEFEB6
:103CB000000020202020202084C2623E1C202020E2
:103CC0002020841212FEEC0020202000605846FEC6
:103CD000FE400000002020001E1E12F2E2202020E4
:103CE0002000FCFE12F2E2002020200002C2FA3E78
:103CF000060020200000ECFE12FEEC002020200038
:103D00001C3E22FEFC20202020009898202098981D
:103D1000E060205050888800000000005050505053
:103D20005000000000008888505020000000000073
:103D300002B2B21E0C0020200000F00864928A4AF1
:103D4000F29A847800204040404040000000E0F8B3
:103D50004E4EF8E0202000002020FEFE1212FEEC65
:103D6000202020202000FCFE0202840020202000D1
:103D7000FEFE020286FC7820202020200000FEFEAD
:103D80001212122020202020FEFE121212202000EB
:103D90000000FCFE020222E2E4002020202020009D
:103DA000FEFE101010FEFE20200000002020FEFE6F
:103DB000202000FEFE202000FEFE30FCCE0220204F
:103DC00000002020FEFE000020202020FEFE1C70AF
:103DD000C0701CFEFE202000002000002020FEFEFF
:103DE0000C30C0FEFE20200000002020FCFE02025D
:103DF00002FEFC00202020202000FEFE223E1C208F
:103E000020000000FCFE020202FEFC000020202038
:103E100020204040FEFE1232FECC20200000202058
:103E20009C3E32F2E400202020000202FEFE02024C
:103E3000000020200000FEFE000000FEFE0020200A
:103E4000202020000E7EE0E07E0E000020200000FA
:103E5000063EF8C03E3EC0F83E06000020200000AE
:103E60002020000086CE7878CE86202000002020FA
:103E7000061EF8F81E0600002020000082E27A1ECE
:103E8000062020202020FEFE02E0E080030C70804F
:103E90000000000020C002FEFE80E0E0100C020CDA
:103EA0001000000000000000000000008080808002
:103EB000808001020000C8E828F8F00020202020BF
:103EC000FEFE08F8F02020202000F0F8080800206E
:103ED0002020F0F808FEFE0020202020F0F82838EE
:103EE000300020202020FCFE0A202000B0F8487876
:103EF0003808C0E0A0E06000FEFE08F8F0202000D6
:103F00002020FBFB2020FBFBE060FEFE60F89820F9
:103F100020002020FEFE2020F8F808F8F008F8F035
:103F20002020002020002020F8F808F8F0202000B1
:103F30002020F0F808F8F00020202000F8F808F819
:103F4000F0E0E0202000F0F808F8F8002020E0E0A1
:103F5000F8F8082020003078E8C820202000FCFC79
:103F600008002020F8F800F8F8002020202038F879
:103F700080F838002020200038F8C03838C0F838E1
:103F8000002020000020200098F860F898202000F1
:103F9000202038F880F83800C0E0200088E8781841
:103FA00020202020FCDE0260E080FEE002DEFC201B
:103FB00080E0600010081810080000000000FE02F9
:103FC0006A3A02FE20202020202013220A0B2060C3
:103FD00002010306040807010202050502030105A8
:103FE0000505050505050505050501020505050489
:103FF000090705050604040606010305040806066C
:10400000050705040506070B060506020502050659
:10401000020505040505040505010204010805055E
:104020000505030404050509050503030103050649
:10403000000000007E200E000E00000040E85EE858
:104040005E080020002000008C1223C400602000C5
:104050000C12D22CD02C22C0002000000020200006
:10406000C02C1232CCC020002020200000200E00E6
:10407000F80620C006F8C02014083E08140000000E
:1040800000002020F82020000000000000008060D8
:1040900020202000000000200080700C03C02000C1
:1040A0000000FC020202FC00202020000402FE00AE
:1040B000002020202020048242221C2020202020BA
:1040C00084121212EC0020202000605846FE4000AE
:1040D000000020009E121212E20020202000F8149E
:1040E0001212E200202020000282621A0600200044
:1040F0000000EC121212EC00202020001C2222A250
:104100007C202020000008200008806020205050E3
:104110008800000000005050505050000000000087
:10412000885050202000000000000272120C002075
:104130000000F00864928A4ABA8478002040404027
:104140004000000080605846586080200000000059
:104150000020FE12121CE02020202000FC0202029F
:10416000840020202000FE020202847820202020EB
:104170000000FE12121220202020FE121212200037
:1041800000007884022222E4000020202000FE109B
:10419000101010FE200000000020FE200000FE2075
:1041A0002000FE1028C4022000000020FE000000B5
:1041B00020202020FE067880807806FE2000002047
:1041C00020000020FE06186080FE20000000202055
:1041D000FC02020202FC002020202000FE222222FB
:1041E0001C2000000000FC02020202FC0000202053
:1041F00020204040FE2222629C20000000208C12E1
:1042000022C4002020000202FE0202000020000062
:10421000FE00000000FE0020202020000618608024
:104220006018060000002000000006788060180674
:1042300018608078060000200000000000200000C8
:1042400002CC3030CC022000000000200618E0181C
:10425000060000200000824222120A0620202020B0
:104260002020FE02E080030C70800000000020C0CF
:1042700002FE80E0100C020C1000000000000000A4
:104280000000000080808080808001020000C8283B
:104290002828F00020202020FE080808F0202020F8
:1042A0002000F008080800202020F0080808FE0080
:1042B00020202020F028282830002020202008FC62
:1042C0000A0A00200000B048483808C0A0A0A0405A
:1042D000FE100808F02000000020FA2000FA80609C
:1042E000FE20D00820000020FE20F8100808F0086A
:1042F00008F02000000020000020F8100808F0203E
:1043000000000020F0080808F00020202000F80835
:104310000808F0E020202000F0080808F80020201D
:1043200020E0F80808200000302848C8202020009D
:1043300008FC080800002020F8000080F800202079
:104340000020186080601800002000001860806065
:104350001860806018000020000000200000089015
:104360006090082000000020186080601800C020C5
:10437000000088681820202020DC02006080FEE019
:1043800002DC208060001008181008000000000007
:10439000FE020A7A02FE202020202020163A0A0B74
:1043A0002060030202060507090103040205020357
:1043B00001050504050405060505050502030505B7
:1043C000050407070706080707070A05060907097E
:1043D0000A06070909060808080B09090703030468
:1043E0000306020404040604060604030406030686
:1043F0000404050504040404060807050603010473
:104400000506000000000000803E000008060000D5
:10441000A078AE782E08000000000000808CF2BF6B
:104420006200200000001C927E0CE29070000000F0
:104430000000000070C8A8B86CBE02C201000000F5
:104440000000002000000800E01806608000000066
:10445000C33C402000000C0F000010107C10100026
:10446000000000000080402020202000000080008C
:1044700000C0300C036000000000788482423C00E1
:10448000000000008088FC8600000000C0C4A292EA
:104490004E0000000000C080DA76000000002030EE
:1044A000A87E0200000000008080844A32020000E2
:1044B0000000000070AC9472020000000000C432E2
:1044C0000A06020000000000E0AC926A060000004C
:1044D0000000809C52721C00000000008008000058
:1044E00000800840200030304848480000000000AC
:1044F00028282828280000000000484848303000BC
:10450000000000008036120C0000000070CCB4AA3D
:10451000BA621C0000000000000000804C322EFE39
:104520008220000000000000382486FA8E8A76007F
:10453000000000000000F08C0402820C002020200B
:104540000000384C86EA9A82463C000000000000D9
:1045500000003884E29E92BAC6000000000000000D
:104560001C86E29E123A0600000000000000708CDB
:104570008482D23216008080C0200000C08CC23AF3
:104580001690F88601030000000000000000000003
:1045900080C0FA0602000000000000000CC23A06CB
:1045A0006040402000008C82F21E788806020200E3
:1045B000000000002040404080C0B8848282C000DB
:1045C000000000000000809C621EF86090FC0E005D
:1045D0000000000000000000800CE2120EF0700CE1
:1045E00002022020000000000000000078C4828247
:1045F000463C00000000000038CC86FA92120C0005
:1046000000000000000078C4828242261C000000E6
:1046100000002060C080804038A486FA32D20C00AE
:104620000000000000000060404080000C92E20E9C
:104630000020202000001C8682F28E02020300006F
:104640000000000000000C7A86808040300F0000DF
:104650000000000000000C06FE4220100C030000C9
:104660000000000000000C06FE320804FE201008C6
:104670000700000000000000000000000080402251
:104680001EF48201012020000000000000001C0434
:1046900082C6BC8C02020100000000000000000085
:1046A00080C0A6928A86C20000000000000000F0D0
:1046B0000FC0A00007FC800000600000F10F80E048
:1046C0000000040204000000000000000000404060
:1046D0004040404001020000E090C8B800000000E7
:1046E000E09E493900000000E0908848000000008A
:1046F000E09048F84E01000000000000F0B0A8581B
:104700000000000000907816010140200000000029
:1047100000E09088E818E08080C06000E01ED1B919
:1047200000000000E0380200000000907802806085
:104730000000E03EE9190000000000604040E09CFD
:1047400042000000C838D038F09800000000000097
:10475000E818D0B800000000F088C8380000000059
:1047600088F8904838E080000000E09088E8180061
:1047700080C0A000C838100800000000C098E808F9
:1047800000000000E89C884000000000E898E098E5
:10479000000000001008F888601800000000000009
:1047A0001008F88840F840380000000000000000C1
:1047B00080D058F010080000000000204060101861
:1047C000F0C038804020000080D8A898D8080000A9
:1047D00000000000A0D807E08000FFE00000D12F1B
:1047E00080C0200008081810100000000000FF81A1
:1047F000818181FF00000000000022080D0E206072
:10480000040205060708090203030508020402045E
:104810000704070707070707070702020707070834
:104820000E0908080807070908020708070B080906
:10483000070909070808090D070808040404060801
:10484000030707060707050707020306020A07070B
:10485000070705060507070B0607050501050708F5
:104860000000000000000000FEFE18181E1E001EC2
:104870001E000000000090F89E90F89E1C00001C96
:104880000000183C26FF66CC88040C183C180C0469
:104890001C221CC0308E408000001804000C100C3C
:1048A00080CC7E72F2DE0C80000C1C1010101C0CF0
:1048B0001C101E1E0000F0FC061C7CC006FCF0C094
:1048C0007C1C14140E14140000000000606060FCD6
:1048D000FC6060600000000C0C0000000000583814
:1048E000C0C0C0C0000000000000181800C038069A
:1048F00018040000F8FC0E060EFCF8040C1C181C32
:104900000C04180CFEFE00001C1C181C86C6663E1B
:104910001C181C1C18181818888C062626FEDC0487
:104920000C1C18180C04C0E0B88CFEFE80040404B3
:10493000041C1C04707E3E3636F6C60C1C18181873
:104940000C04F8FC6E6666EECC040C1818181C0CEF
:10495000060606E6761E0600001C1C0000009CFEF3
:10496000666666FE9C0C1C1818181C0C3C7E66665D
:1049700066FCF80C1C18181C0C04181818181818C9
:1049800058386060F0F098980C0000000004040CA7
:10499000D8D8D8D8D8D8D8000000000000000C988B
:1049A00098F0F060600C040400000000080C06C6DB
:1049B000E6763C180000001818000000E03008C43B
:1049C000F63A1A1AF2FA7E0408F00C30604C9C9801
:1049D000988C9C9C90484C2000C0F8BE86BEF8C0C5
:1049E00000181C04040404041C18FEFE66666666B7
:1049F000FEDC1C1C181818181C0CF8FC0E06060E01
:104A00009C08040C1C18181C0C04FEFE0606060E5E
:104A1000FCF81C1C1818181C0C04FEFE6666666662
:104A2000661C1C1818181818FEFE66666666061CBA
:104A30001C0000000000F8FC0E0606C6CEDCC80410
:104A40000C1C181818180C04FEFE60606060FEFE56
:104A50001C1C000000001C1CFEFE1C1C80800000B2
:104A600000FEFE0C1C1818181C0CFEFE603078ECC2
:104A700086021C1C000000041C18FEFE0000000042
:104A8000001C1C1818181818FEFE0E7CE000E07CB4
:104A90000EFEFE1C1C00000C1C0C00001C1CFEFE6C
:104AA0001C78E080FEFE1C1C0000040C1C1CF8FCA2
:104AB0000E0606060EFCF8040C1C1818181C0C0434
:104AC000FEFE6666667E3C1C1C0000000000F8FCD2
:104AD0000E0686060EFCF8040C1C18181C0C1C2470
:104AE000FEFE6666E6E6BE1C001C1C0000000C1CF8
:104AF00018103C7E666666EECC0C1C1818181C0C50
:104B0000060606FEFE0606060000001C1C0000004D
:104B1000FEFE00000000FEFE040C1C18181C0C0415
:104B2000021EFCE000E0FC1E020000001C1C1C0039
:104B3000000006FEF800F0FE0EFEF000F8FE060093
:104B4000001C1C1C0000001C1C1C0000060EF8F0C1
:104B5000F80E06181C0400041C18060E38F0F03875
:104B60000E060000001C1C000000060686E6761EED
:104B70000E06181C1C1818181818FEFE0606FCFC59
:104B8000C0C00638C000000004180606FEFEC0C003
:104B9000FCFC20380E0E3820000000000000000051
:104BA00000000000000080808080808080800206FD
:104BB000040000001098D858F8F0000C1C18180CCD
:104BC0001C10FEFE301838F0E01C1C0C181C0C04E5
:104BD000E0F018183830040C18181C0CE0F03818E5
:104BE00030FEFE040C1C180C1C1CE0F0D8D8D8F0C9
:104BF000E0040C181818180818FCFE1A1A001C1CDF
:104C00000000E0F0381830F8F864ECDCD8CCFC7C1C
:104C1000FEFE301818F8F01C1C0000001C1CFAFAEC
:104C20001C1C00FAFAC0FC7CFEFEE0F098081C1C7C
:104C300000041C18FEFE1C1CF8F81018F8F01818D8
:104C4000F8F01C1C00001C1C00001C1CF8F830189C
:104C500018F8F01C1C0000001C1CE0F0381838F09C
:104C6000E0040C1C181C0C04F8F8301838F0E0FCB8
:104C7000FC0C181C0C04E0F0381830F8F8040C1C7C
:104C8000180CFCFCF8F83018181C1C00000070F818
:104C9000D8D8D890081818181C0C18FCFE18180042
:104CA0000C1C1818F8F8000000F8F80C1C18180C68
:104CB0001C1C38F8C000C0F83800001C1C1C000088
:104CC00018F8E000F038F000E0F81800001C1C0CA8
:104CD000000C1C1C00001838E0E03818181C0404F4
:104CE0001C1818F8E000E0F8180084FCF83C0400F8
:104CF0001898D878381C1C18181880FC7E060600F6
:104D00007CFCC0C0FEFC06067EFC80C0C0FC7C00B3
:104D10006030307060603000000000000000FE0273
:104D20000202020202FE1C1010101010101C1E6C59
:104D30000D0E206002010308070A0801030305079E
:104D4000010401040603060607060606060601011D
:104D5000060606060D0907080807070907010508E2
:104D600007090709070908070707090D08090802C5
:104D700004020508020606050606040606010206E8
:104D800001090606060604050406070906070603C8
:104D90000103070700000000FE141E001E000000B3
:104DA0009090F89690F89690001C00001C0000006F
:104DB000182422FF4242840810103C1008041C22D0
:104DC000221CC0308C4240800000100C00000C10EF
:104DD000100C805C2262920C80000C101010100CE1
:104DE00008101E00F00C021C6080020CF080601C99
:104DF00004140E14040000000000404040F840403D
:104E0000400000000C0000000070808080800000E6
:104E10000000001000C0380618040000FC02020266
:104E200002FC0C101010100C0804FE00001C0C02F8
:104E30000282423C1018141010100C02222222DCB4
:104E40000C101010100C8040300804FE0004040404
:104E500004041C043816121212E20C10101018046C
:104E6000F844222222C40C101010100C020202E29C
:104E70001A0600001C000000DC22222222DC0C109A
:104E80001010100C3C42424222FC08101010080482
:104E90000810087040A0A0101008000000040408CA
:104EA000909090909090000000000000081010A0DA
:104EB000A0400804040000000C028242221C0000F2
:104EC00014000000E01804C422121212A272040896
:104ED000F00C30404C909090889C90504C2000807A
:104EE000E09C829CE0800018040000000000041890
:104EF000FE2222222222DC1C10101010100CF804BA
:104F00000202020204080408101010100804FE0235
:104F10000202020204F81C10101010100804FE22F5
:104F200022222222221C101010101010FE222222F7
:104F30002222021C000000000000F80402020242CB
:104F40004244C8040810101010100804FE2020204D
:104F50002020FE1C00000000001CFE1C00000000C1
:104F6000FE0C1010100CFE804020508804021C0023
:104F7000000000040810FE0000000000001C1010DB
:104F800010101010FE0C30C000C0300CFE1C0000D1
:104F900004180400001CFE0418608000FE1C0000C1
:104FA0000004081CF804020202020204F8040810BB
:104FB000101010100804FE42424242423C1C000005
:104FC00000000000F804020202020204F8040810C3
:104FD000101014081C10FE424242C242423C1C0007
:104FE0000000000408101C22222242428C0C1010E7
:104FF0001010100C020202FE0202020000001C004F
:105000000000FE0000000000FE040810101008045C
:105010000618608000806018060000000418040074
:1050200000000638C000C03C023CC000C03806008A
:10503000000418040000000418040000020C906032
:1050400060900C02100C000000040C1002041820E8
:10505000C020180402000000001C00000000000234
:105060008242221A06021018141010101010FE02AC
:10507000FC800638C0000000041802FE80FC201CE2
:10508000021C2000000000000000000000000000E2
:1050900080808080808080800204000010884848E2
:1050A00048F00C101010081CFE10080808F01C082E
:1050B0001010100CF0080808100C10101008F00860
:1050C000080810FE0C101010081CF04848484870E2
:1050D0000C101010100808FC0A0A001C0000F00850
:1050E000080810F84C909090887CFE10080808F092
:1050F0001C000000001CFA1C00FA807CFE8040A00E
:1051000010081C0000000C10FE1CF8100808F0101D
:105110000808F01C0000001C0000001CF810080823
:1051200008F01C000000001CF008080808F00C1033
:105130001010100CF810080808F0FC081010100CE3
:10514000F008080810F80C10101008FCF8100808F7
:105150001C0000003048484890081010100C08FE51
:105160000808001C1010F800000000F80C101010C7
:10517000081C1860800080601800000418040000FB
:1051800018E000E018E000E018000418040004181B
:1051900004000830C0C03008100C00000C1018606B
:1051A000800080601800808C700C000008088868FF
:1051B0001808101814101010807C02007C80FEFC6F
:1051C000027C80807C004020206040402000000065
:1051D00000000000FC0404040404FC1C1010101067
:1051E000101C099D05072060010103050505050147
:1051F000020205030102010304020404040404047E
:105200000404010103030304050404040404040466
:10521000040304050305050504050404030405054A
:105220000505050203020303010404040404040445
:105230000401030401050404040404040404030534
:10524000030404030103050000BE0E000E28FE281F
:10525000FE284854FE5424462610C8C46C92AA4422
:10526000A0063C42423C0054385400103810C01094
:105270001040C038067C82827C04FEC4A2928C82DC
:1052800092926C302824FE4E929272789492600230
:10529000E2120E6C92926C0C92523C6C6C10284490
:1052A00028282844281004A2120C6492F2827CFC64
:1052B0002222FCFE92926C7C828244FE82827CFEE0
:1052C000929282FE1212027C82A264FE1010FE8272
:1052D000FE824080807EFE10284482FE8080FE0494
:1052E0000804FEFE081020FE7C8282827CFE1212E0
:1052F0000C7C82A242BCFE32528C4C92926402FE22
:10530000027E80807E3E4080403EFE403040FEC6B1
:10531000281028C60608F00806C2A2928A86FE82D5
:105320000638C082FE0402048080800640A8A8706F
:105330007E908870708888507088907E70A8A830A1
:1053400010FC120410A8A878FE1008F0FA40807A29
:10535000FE205088FEF8083008F0F81008F0708839
:105360008870F8282810102828F8F810081090A83D
:10537000A848087E8840788040F8788078788060F7
:105380008078D820D818A0A078C8A8A898106C82D7
:10539000EE826C101008102010000005072061003C
:1053A0000000000000005F00000007000700147FFD
:1053B000147F14242A7F2A12231308646236495565
:1053C00022500005030000001C2241000041221C65
:1053D00000082A1C2A0808083E080800503000006F
:1053E0000808080808006060000020100804023E59
:1053F0005149453E00427F400042615149462141AA
:10540000454B311814127F1027454545393C4A4910
:105410004930017109050336494949360649492988
:105420001E003636000000563600000008142241E7
:1054300014141414144122140800020151090632F4
:105440004979413E7E1111117E7F494949363E41DD
:105450004141227F4141221C7F494949417F09093D
:1054600001013E414151327F0808087F00417F41E0
:10547000002040413F017F081422417F40404040CE
:105480007F0204027F7F0408107F3E4141413E7F3E
:10549000090909063E4151215E7F091929464649FD
:1054A00049493101017F01013F4040403F1F2040F9
:1054B000201F7F2018207F631408146303047804DE
:1054C00003615149454300007F4141020408102017
:1054D00041417F000004020102044040404040007E
:1054E0000102040020545454787F4844443838441E
:1054F000444420384444487F3854545418087E09A2
:105500000102081454543C7F0804047800447D4090
:10551000002040443D00007F10284400417F4000AF
:105520007C041804787C0804047838444444387CAB
:1055300014141408081414187C7C08040408485433
:10554000545420043F4440203C4040207C1C2040D8
:10555000201C3C4030403C44281028440C50505003
:105560003C4464544C44000836410000007F000075
:10557000004136080008082A1C08081C2A080800F0
:10558000060909060000070E206000000000000068
:1055900000000000000000000000FC00000000000F
:1055A000000D00000000003C003C00000000000076
:1055B0000000000020F82020F8200001070101076A
:1055C00001006090F89010000004040F0403000034
:1055D00018249860100C000C02010609060030C85F
:1055E000C8300000000708080906090000003C0058
:1055F000000000000000000000000000E0180402AD
:10560000000000030C102000020418E0000000203D
:10561000100C0300000080A0C0C0A08000000201A8
:1056200001020000808080F0808080000000070080
:1056300000000000000000000020180C0400000022
:10564000808080808080000000000000000000005A
:10565000000000000000081C08000000000080603E
:1056600018060018060100000000F008844408F045
:105670000003040808040300201008FC00000000D8
:1056800000000F000000180404844438000C0A09CC
:10569000080808000804444444B80006080808083C
:1056A000070080601804FC0000010101010F0100E7
:1056B0007C24242424C40006080808080700F88471
:1056C000444444880007080808080700040404C488
:1056D000340C00000C0300000000B844444444B8FB
:1056E00000070808080807007884848444F8000448
:1056F0000808080807000020702000000000081CAF
:10570000080000000020702000000020180C040099
:105710000000804020100800000001020408000082
:1057200040404040404000020202020202000008E5
:10573000102040800000080402010000048444247A
:10574000180000000D0000000000F008C42424F838
:10575000000304090A0A0300F884848484F8000F13
:10576000000000000F00FC4444447880000F08084B
:1057700008080700F80404040418000708080808CB
:105780000600FC04040408F0000F080808040300E5
:10579000FC4444444404000F080808080800FC4482
:1057A00044444404000F000000000000F804048496
:1057B00084980007080808080700FC40404040FCA7
:1057C000000F000000000F000404FC0404000008A7
:1057D000080F080800000000040404FC0006080884
:1057E00008080700FC4020D00804000F0000000358
:1057F0000C00FC0000000000000F0808080808006A
:10580000FC1860806018FC0F00000100000FFC18FD
:10581000608000FC000F000001060F00F804040483
:1058200004F80007080808080700FC8484848478CA
:10583000000F000000000000F804040404F8000752
:1058400008080E181700FC8484848478000F000177
:105850000204080038444484840800040808080846
:105860000700040404FC0404040000000F0000000E
:10587000FC00000000FC0007080808080700FC0006
:10588000000000FC0000030C0C030000FC0000C042
:105890000000FC030C0300030C030C30C0C0300CF0
:1058A000000C030000030C003C408080403C0000E2
:1058B00000000F00000004048444340C000C0A09AA
:1058C000080808000000FE0202020000003F20203D
:1058D000200006186080000000000000010618008B
:1058E000020202FE0000002020203F0000001008FD
:1058F0000404081000000000000000000000000088
:105900000000002020202020200000040C1820008F
:10591000000000000000000000A0A0A0A0C0000740
:10592000080808040F00FC40202020C0000F0408D5
:1059300008080700C02020202040000708080808A9
:105940000400C020202040FC0007080808040F00C5
:10595000C020202020C0000709090909090080F89B
:105960008484840800000F0000000000C020202074
:1059700040E00023444444423F00FC40202020C03B
:10598000000F000000000F00002020EC00000000CD
:1059900000000F00000000002020EC00001020207C
:1059A000201F0000FC0080402000000F01010204C5
:1059B000080000FC000000000000070808080000C4
:1059C000E02020C02020C00F00000300000FE040B6
:1059D000202020C0000F000000000F00C020202069
:1059E00020C00007080808080700E040202020C069
:1059F000007F020404040300C020202040E00003D4
:105A0000040404027F00E04020202040000F00003A
:105A100000000000C02020202040000409090909DE
:105A2000060020F8202020000000070808080400D5
:105A3000E000000000E00007080808040F00E00094
:105A4000000000E00000030C0C030000E0000080F8
:105A50000000E0070804030408072040808040207D
:105A60000008040202040800E000000000E0002337
:105A7000444444423F0020202020A06000080C0A3B
:105A8000090808000080807C0202000000001F203E
:105A900020000000FE0000000000001F00000000C9
:105AA00002027C8080000020201F000000003008DF
:105AB000081020201800000000000000FEFEFEFE7E
:105AC000FEFEFE7F7F7F7F7F7F7F0000060E2060CF
:105AD0000000000000000000000000000000FCFCCE
